:0300000002184F94
:0C184F00787FE4F6D8FD7581590215ED94
:04187C000000000068
:101525007F037D02754A0BE4F54BF54C754D01754E
:101535004E01754F01C007C00578367C00FDFB7A6A
:1015450000794AFE7F06120FE3D005D007120C572B
:101555007F037D03754A01E4F54BF54C754D017527
:101565004E01754F01C007C00578367C00FDFB7A3A
:1015750000794AFE7F06120FE3D005D007120C57FB
:04158500D2B2D2B359
:01158900223F
:07186E0090FE817401F022DD
:0718750090FE817406F022D1
:0D18250090FE817403F0A3E05402C313FF92
:011832002293
:0D18330090FE817403F0A3E05402C313FF84
:011840002285
:0E18410090FE82E054FEF090FE817405F022CD
:0811CB008E508F518D528B53A1
:1011D30078547C007D007BFF7A18797C7E007F0247
:1011E300120FE3E550F55485515575BA8090FE8092
:1011F30074E0F0A3E4F090FE82E030E70280EB12AB
:10120300186E90FE86E552F090FE817402F012187B
:1012130025EF600280D4E55354FE90FE86F090FEE5
:10122300817402F0121825EF600280BE90FE86E5FD
:1012330051F090FE817402F0121825EF600280AA2B
:1012430090FE86E554F090FE817402F0121825EFAB
:101253006002809690FE86E555F090FE817402F060
:0E126300121825EF60028082121875E4F5BAA9
:01127100225A
:041272008F568D57AF
:1012760078587C007D007BFF7A18797E7E007F029D
:10128600120FE3E4FDFC75BA8090FE8074E0F0A3D3
:10129600E4F090FE82E030E70280EB12186EE5562D
:1012A60054FE90FE86F090FE817402F0121825EF2F
:1012B600600280D290FE86E557F090FE817402F0BF
:1012C600121825EF600280BE12186EE55644019092
:1012D600FE86F090FE817402F0121825EF600280FF
:1012E600A590FE817404F090FE87E0F5581218333D
:1012F60090FE817404F090FE87E0F55912183312BF
:0D1306001875E4F5BAE558FCE559AE04FF92
:0113130022B7
:100C5700EF147003020CEB147003020D59147003A8
:100C6700020DC7147003020E35147003020EA3247D
:100C7700056003020F12E5365401FFA8050880023C
:100C8700C333D8FCF594E5365402C313FFA805080F
:100C97008002C333D8FCF593E537A805088002C363
:100CA70033D8FC90FE10F0E538A805088002C3335E
:100CB700D8FC90FE18F0E539A805088002C333D8A0
:100CC700FC90FE20F0E53AA805088002C333D8FC63
:100CD70090FE28F0E53BA805088002C333D8FC90B6
:100CE700FE30F022E5365401FFA805088002C33321
:100CF700D8FCF592E5365402C313FFA80508800215
:100D0700C333D8FCF591E537A805088002C333D86B
:100D1700FC90FE11F0E538A805088002C333D8FC23
:100D270090FE19F0E539A805088002C333D8FC9076
:100D3700FE21F0E53AA805088002C333D8FC90FEEF
:100D470029F0E53BA805088002C333D8FC90FE31A3
:100D5700F022E5365401FFA805088002C333D8FC0A
:100D6700F596E5365402C313FFA805088002C3337E
:100D7700D8FCF595E537A805088002C333D8FC9061
:100D8700FE12F0E538A805088002C333D8FC90FEB0
:100D97001AF0E539A805088002C333D8FC90FE2273
:100DA700F0E53AA805088002C333D8FC90FE2AF084
:100DB700E53BA805088002C333D8FC90FE32F02239
:100DC700E5365401FFA805088002C333D8FCF5B205
:100DD700E5365402C313FFA805088002C333D8FCC5
:100DE700F5B1E537A805088002C333D8FC90FE1398
:100DF700F0E538A805088002C333D8FC90FE1BF045
:100E0700E539A805088002C333D8FC90FE23F0E536
:100E17003AA805088002C333D8FC90FE2BF0E53BC7
:100E2700A805088002C333D8FC90FE33F022E536CC
:100E37005401FFA805088002C333D8FCF5B4E53692
:100E47005402C313FFA805088002C333D8FCF5B3C7
:100E5700E537A805088002C333D8FC90FE14F0E5F7
:100E670038A805088002C333D8FC90FE1CF0E5398A
:100E7700A805088002C333D8FC90FE24F0E53AA801
:100E870005088002C333D8FC90FE2CF0E53BA8058B
:100E9700088002C333D8FC90FE34F022E5365401B3
:100EA700FFA805088002C333D8FCF5CAE53654020B
:100EB700C313FFA805088002C333D8FCF5C9E5377B
:100EC700A805088002C333D8FC90FE15F0E538A8C2
:100ED70005088002C333D8FC90FE1DF0E539A8054C
:100EE700088002C333D8FC90FE25F0E53AA8050830
:100EF7008002C333D8FC90FE2DF0AF05E53BA80771
:0C0F0700088002C333D8FC90FE35F022B5
:1017F6003638323325640000000000000000000087
:0118060000E1
:1015ED0078227C007D007BFF7A1779FD7E007F0AD3
:1015FD00120FE3752C00752D7A121314E4FF1217D8
:10160D009BE4FF1216EE7531FF7532177533F685B3
:10161D002C34852D357B007A0079221209577B00F9
:10162D007A007922753310E4FDFF12164C7B007A97
:0F163D000079227533107D02E4FF12164C80C72E
:100003000000000000000000002F000000000700B7
:10001300070000147F147F1400242A7F2A12006231
:1000230064081323003649552250000005030000DD
:1000330000001C224100000041221C000014083E65
:1000430008140008083E0808000000A0600000082B
:10005300080808080000606000000020100804027F
:10006300003E5149453E0000427F4000004261513D
:100073004946002141454B31001814127F100027D7
:1000830045454539003C4A4949300001710905039A
:1000930000364949493600064949291E00003636CB
:1000A300000000005636000000081422410000142E
:1000B300141414140000412214080002015109060B
:1000C30000324959513E007C1211127C007F49498C
:1000D3004936003E41414122007F4141221C007FBD
:1000E30049494941007F09090901003E4149497ACB
:1000F300007F0808087F0000417F41000020404145
:100103003F01007F08142241007F40404040007FB0
:10011300020C027F007F0408107F003E4141413EF4
:10012300007F09090906003E4151215E007F09193C
:1001330029460046494949310001017F0101003F39
:100143004040403F001F2040201F003F4038403FB9
:10015300006314081463000708700807006151491D
:10016300454300007F41410000552A552A550000B0
:1001730041417F000004020102040040404040402E
:10018300000001020400002054545478007F4844C6
:10019300443800384444442000384444487F0038FD
:1001A3005454541800087E0901020018A4A4A47C26
:1001B300007F080404780000447D400000408084F0
:1001C3007D00007F102844000000417F4000007C38
:1001D30004180478007C0804047800384444443844
:1001E30000FC242424180018242418FC007C080490
:1001F300040800485454542000043F444020003C69
:100203004040207C001C2040201C003C4030403CEF
:10021300004428102844001CA0A0A07C004464547F
:100223004C441414141414140000000000000000C3
:100233000000000000000000000000F800000000C3
:10024300000000333000000000100C06100C060004
:10025300000000000000000040C07840C07840006B
:10026300043F04043F040400007088FC08300000CD
:10027300001820FF211E0000F008F000E018000025
:1002830000211C031E211E0000F0088870000000DE
:100293001E2123241927211010160E000000000030
:1002A3000000000000000000000000E0180402004D
:1002B300000000071820400000020418E0000000BE
:1002C3000040201807000000404080F080404000BC
:1002D3000202010F01020200000000F00000000012
:1002E3000101011F010101000000000000000000E6
:1002F30080B070000000000000000000000000005B
:1003030000010101010101010000000000000000E3
:10031300003030000000000000000000806018047E
:10032300006018060100000000E010080810E0005B
:10033300000F102020100F00001010F80000000024
:100343000020203F2020000000700808088870006B
:1003530000302824222130000030088888483000EB
:100363000018202020110E000000C02010F800000B
:1003730000070424243F240000F8088888080800A4
:100383000019212020110E0000E0108888180000B9
:10039300000F112020110E0000380808C83808008B
:1003A3000000003F0000000000708808088870000B
:1003B300001C222121221C0000E010080810E0008C
:1003C3000000312222110F00000000C0C000000015
:1003D300000000303000000000000080000000003A
:1003E3000000806000000000000080402010080032
:1003F30000010204081020004040404040404000FB
:1004030004040404040404000008102040800000D5
:100413000020100804020100007048080808F000DA
:100423000000003036010000C030C828E810E000AA
:100433000718272423140B000000C038E000000035
:10044300203C23020227382008F88888887000009F
:10045300203F202020110E00C03008080808380073
:10046300071820202010080008F808080810E000EA
:10047300203F202020100F0008F88888E80810008B
:10048300203F20202320180008F88888E80810005F
:10049300203F200003000000C03008080838000097
:1004A30007182020221E020008F808000008F80898
:1004B300203F210101213F20000808F8080800001F
:1004C3000020203F2020000000000808F808080052
:1004D300C08080807F00000008F888C028180800CA
:1004E300203F20012638200008F808000000000003
:1004F300203F20202020300008F8F800F8F80800FA
:10050300203F003F003F200008F830C00008F808F3
:10051300203F200007183F00E01008080810E00003
:100523000F10202020100F0008F808080808F0001A
:10053300203F210101010000E01008080810E0003D
:100543000F18242438504F0008F8888888887000D2
:10055300203F2000030C3020007088080808380072
:100563000038202121221C00180808F80808180068
:100573000000203F2000000008F808000008F808E9
:10058300001F202020201F000878880000C838089A
:10059300000007380E010000F80800F80008F80012
:1005A300033C0700073C03000818688080681808AC
:1005B30020302C03032C30200838C800C83808002A
:1005C3000000203F2000000010080808C838080079
:1005D3002038262120201800000000FE020202001D
:1005E3000000007F40404000000C30C000000000CD
:1005F300000000010638C00000020202FE000000F5
:10060300004040407F00000000000402020204009A
:1006130000000000000000000000000000000000D7
:1006230080808080808080800002020400000000BF
:1006330000000000000000000000808080800000B7
:100643000019242222223F2008F8008080000000A5
:10065300003F112020110E00000000808080000068
:10066300000E112020201100000000808088F80077
:10067300000E112020103F200000808080800000A9
:10068300001F222222221300008080F0888888180D
:100693000020203F20200000000080808080800018
:1006A300006B94949493600008F8008080800000AD
:1006B300203F210000203F20008098980000000088
:1006C3000020203F202000000000008098980000B8
:1006D30000C08080807F000008F8000080808000D8
:1006E300203F24022D302000000808F800000000FD
:1006F3000020203F202000008080808080808000B8
:10070300203F20003F20003F808000808080000049
:10071300203F210000203F200000808080800000D7
:10072300001F202020201F00808000808000000008
:1007330080FFA12020110E00000000808080800037
:10074300000E112020A0FF80808080008080800028
:1007530020203F2120000100000080808080800055
:100763000033242424241900008080E080800000CA
:100773000000001F20200000808000000080800017
:10078300001F202020103F20808080000080808078
:1007930000010E3008060100808000800080808008
:1007A3000F300C030C300F0000808000808080002D
:1007B3000020312E0E312000808080000080808058
:1007C30080818E7018060100008080808080800008
:1007D3000021302C2221300000000000807C020226
:1007E30000000000003F404000000000FF00000048
:1007F30000000000FF0000000002027C80000000F7
:100803000040403F00000000000601010202040412
:1008130000000000000000000000F010101010FFA6
:1008230010101010F000000000000F04040404FF77
:10083300040404040F0000004040405F5555557503
:100843005555555F404040000040200F09498979C4
:100853000909090F2040000000FE02424ACA4A4A21
:10086300CA4A4A4202FE000000FF40504C43404047
:100873004F50505C40FF00000000F888888888FFD4
:1008830088888888F800000000001F080808087F8F
:10089300888888889F80F00080828282828282E2B8
:1008A300A2928A8682808000000000000040807F40
:1008B3000000000000000000101010FF10900888D6
:1008C3008888FF88888808000444827F01808040EC
:1008D300432C1028468180000010101010D030FFE8
:1008E30030D0121C1010000010080402010000FF99
:0808F3000000010204081000DE
:10158A007F057D05752E0BE4F52FF5307531017554
:10159A003201753301C007C00578367C00FDFB7A3D
:1015AA0000792EFE0F120FE3D005D007120C577FD9
:1015BA00057D04752E01E4F52FF53075310175327C
:1015CA0001753301C007C00578367C00FDFB7A003F
:1015DA00792EFE0F120FE3D005D007120C57D2CC8A
:0215EA00D2CD60
:0115EC0022DC
:10178100EF4E60157D087C07ED1DAA0470011C4A0F
:0917910070F6EF1F70EA1E80E7FC
:01179A00222C
:10179B008F2EE52E7006FD7FA612169DE52EB40149
:0917AB0007E4FD7FA712169D2240
:1016EE008F2EE52E700DFD7FC812169DE4FD7FA195
:1016FE0012169DE52EB4010EE4FD7FC012169DE478
:07170E00FD7FA012169D22D1
:081865007F01AE071FEE70FACF
:01186D002258
:0F180700D2CDD2CC121865C2CD121865C2CC2238
:0A185B00C2CDD2CC121865D2CD2206
:0F181600D2CD121865D2CC121865C2CC0218655B
:02173C00AD07F7
:10173E00E4FCC2CCED30E704D2CD8002C2CD12184B
:10174E0065D2CC121865C2CCED25E0FD0CBC08E2CA
:01175E002268
:08169500E4FD12169DE4FDFFC7
:10169D00AB05AA071218077F7812173C121816EB24
:1016AD0060047F408002E4FF12173C121816AF024F
:0916BD0012173C12181602185B0A
:10175F00A907ED24B0FFE4FD12169DE954F0C4541F
:10176F000F4410FFE4FD12169DE9540FFFE4FD0234
:02177F00169DB5
:1017CC00E4FD7F8D12169DE4FD7F1412169DE4FD41
:0517DC007FAF02169D25
:1017E100E4FD7F8D12169DE4FD7F1012169DE4FD30
:0517F1007FAE02169D11
:1016C600E4F9E924B0FF121695E4FD7F1012169D89
:1016D600E4F52E7D01E4FF12169D052EE52EC3943A
:0716E6008040F009B904DBAC
:0116ED0022DA
:0410FE008F358D3667
:10110200E4F539E538C313FDF53AE4F53BF53CE582
:1011120038B40808753D00753E068029E53813137A
:1011220013541FFF7E00E5385407600590000180CC
:1011320003900000E5822FFFE5833EFE7C00121043
:10114200368E3D8F3EEB24E0F539AD36AF351217C2
:101152005FE4F53BF53CC3E53C953EE53B953D50F0
:1011620067E53AFD7C00AE3BAF3C121048ED4C7097
:101172000FE53864086009AD360536AF3512175FE2
:10118200E538B4081075F006E539A42403F582E5C4
:10119200F034008013E538B4102E75F010E539A450
:1011A200242BF582E5F03402F583E582253CF582B5
:1011B200E583353BF583E493FF7D0112169D053CE3
:0811C200E53C7092053B808EB4
:0111CA002202
:0417B4008F1DA905D7
:1017B8007F017E00AD0119ED6009AD1D7C0012109E
:0317C8003680F177
:0117CB0022FB
:081434008F138D148A158B162D
:10143C00E4F51BF51CE518B40803751B02E4F5195B
:10144C00E519C395175069C3E517951914FD7F0A63
:10145C001217B4AC15AD16CFCDCFCECCCE121048E2
:10146C007C007D0A1210488D1AE51C7025E51714B6
:10147C00FFE519C39F501BE51A7014E518C313251B
:10148C001B8519F0A42513FF8518387B208018754F
:10149C001C01E518C313251B8519F0A42513FFE5C2
:1014AC001A2430FB851838AD141210FE05198090E3
:0114BC00220D
:0A164C008F2E8D2F8B308A318932EA
:10165600E4F534AB30AA31A93285348275830012A1
:101666001009602AAF3405348F8275830012100981
:10167600FB853338AD2FAF2E1210FEE533B40804C8
:0E16860074068004E533C313252EF52E80C5AF
:011694002233
:0613A9008F428D438B44CE
:1013AF00E545131313541FFF7E00E54554077C00DA
:1013BF0060047D0180027D00ED2FFFEC3EFEAD4508
:1013CF007C001210368E488F49E4F546F547C3E589
:1013DF00479549E5469548504BE545FD7C00AE469F
:1013EF00AF47121048ED4C7009AD430543AF4212A1
:1013FF00175FE545B4102DE544C43354E0241BF5C5
:10140F0082E43408F583E5822547F582E583354686
:10141F00F583E493FF7D0112169D0547E54770AEF6
:04142F00054680AA44
:011433002296
:0614BD008F088D098B0A67
:1014C300E4F50FF510E50B131313541FFFE50B544D
:1014D3000760047E0180027E00EF2EF50BE4F51118
:1014E300E511C3950B503AE5112509FDAF08121715
:1014F3005FE4F512E512C3950A5022AB0CAA0DA9BD
:101503000E0510E510AE0F7002050F14F5828E83E1
:10151300121009FF7D0112169D051280D705118057
:01152300BF08
:0115240022A4
:1013140012158A7FAE1216957F10121695E4FD7F82
:10132400B012169DE4FD7F8112169DE4FD7FFF122D
:10133400169DE4FD7FA112169DE4FD7FA612169D65
:10134400E4FD7FA812169DE4FD7F1F12169DE4FDA7
:101354007FC812169DE4FD7FD3121697E4FD7FD556
:1013640012169DE4FD7F8012169DE4FD7FD91216AE
:101374009DE4FD7F1F12169DE4FD7FDA121697E4AB
:10138400FD7FDB12169DE4FD7F4012169DE4FD7F78
:101394008D12169DE4FD7F1412169D1216C6E4FDEF
:0513A4007FAF02169D61
:100F1300E709F608DFFA8046E709F208DFFA803EC0
:100F230088828C83E709F0A3DFFA8032E309F608AD
:100F3300DFFA8078E309F208DFFA807088828C8315
:100F4300E309F0A3DFFA806489828A83E0A3F608C9
:100F5300DFFA805889828A83E0A3F208DFFA804CA3
:100F630080D280FA80C680D4806980F2803380107A
:100F730080A680EA809A80A880DA80E280CA8033E3
:100F830089828A83ECFAE493A3C8C582C8CCC5835B
:100F9300CCF0A3C8C582C8CCC583CCDFE9DEE7802B
:100FA3000D89828A83E493A3F608DFF9ECFAA9F0AA
:100FB300EDFB2289828A83ECFAE0A3C8C582C8CC00
:100FC300C583CCF0A3C8C582C8CCC583CCDFEADE19
:100FD300E880DB89828A83E493A3F208DFF980CC7B
:100FE30088F0EF60010E4E60C388F0ED2402B40474
:100FF3000050B9F582EB2402B4040050AF2323451B
:061003008223900F6373CD
:10100900BB010CE58229F582E5833AF583E022509C
:1010190006E92582F8E622BBFE06E92582F8E222E6
:0D102900E58229F582E5833AF583E4932200
:10103600EF8DF0A4A8F0CF8CF0A428CE8DF0A42ECE
:02104600FE2288
:10104800BC000BBE0029EF8DF084FFADF022E4CC8C
:10105800F875F008EF2FFFEE33FEEC33FCEE9DEC55
:10106800984005FCEE9DFE0FD5F0E9E4CEFD22ED9B
:10107800F8F5F0EE8420D21CFEADF075F008EF2FE5
:10108800FFED33FD4007985006D5F0F222C398FDD6
:051098000FD5F0EA2273
:1008FB00E53D2431F8E6053D22782E3007027831AC
:10090B00E475F0011210C802109D2000EB7F2ED26F
:10091B00008018EF540F2490D43440D4FF30040BD4
:10092B00EF24BFB41A0050032461FFE53E600215AB
:10093B003E0541E5417002054030070D782EE47508
:10094B00F0011210C8EF0210B60217157403D2078C
:10095B008003E4C207F53D8B2E8A2F8930E4F53EE8
:10096B00F540F541E53E60077F2012093680F575AD
:10097B003FFFC201C200C202C203C205C206C208C7
:10098B00120904FF700D3007057F00120947AF41B4
:10099B00AE4022B4255FC2D5C204120904FF24D095
:1009AB00B40A00501A75F00A783E30D50508B6FF28
:1009BB000106C6A426F620D5047002D20380D924E2
:1009CB00CFB41A00EF5004C2E5D204020B47D20198
:1009DB0080C6D20080C0D20280BCD2D580BAD205EC
:1009EB0080B47F201209362002077401B53E004007
:1009FB00F11208FBFF12093602096FD208D20680EA
:100A0B00951208FBFB1208FBFA1208FBF94A4B7014
:100A1B000679187A0C7BFF20022EE53E602A7E00B9
:100A2B008E8275830012100960060EEE653F70F022
:100A3B00C2D5EBC0E0EAC0E0E9C0E0EE120B8ED00D
:100A4B00E0F9D0E0FAD0E0FB12109DFF60AAEBC0FA
:100A5B00E0EAC0E0E9C0E0120936D0E02401F9D0A9
:100A6B00E03400FAD0E0FBE53F0460DCD53FD980F1
:100A7B00877BFF7A0B798AD202809C79108002796E
:100A8B0008C206C2088008D2D5790A8004790AC246
:100A9B00D5E53F047002F53FE4FAFDFEFF1208FBBB
:100AAB00FC7B082001131208FBFD7B1030000A129F
:100ABB0008FBFE1208FBFF7B20EC3382D592D5504E
:100ACB0013C3E43000069FFFE49EFEE42001039D68
:100ADB00FDE49CFCE4CBF8C201EC700CCFCECDCC8A
:100AEB00E824F8F870F38017C3EF33FFEE33FEED15
:100AFB0033FDEC33FCEB33FB994002FB0FD8E9EBF6
:100B0B00300105F8D0E0C448B201C0E00AEC4D4E0C
:100B1B004F78207B0070C2EAB53F0040BCC0E012AA
:100B2B000B90D0F0D0E0200104C4C0E0C4B201C0EF
:100B3B00F012091FD0F0D5F0EB02096F1210D80A92
:100B4B000C530A865809DD4C09D9420A8A4F0A927E
:0F0B5B00440A924909F2430A98550A7C460A7CDB
:100B6A00450A7C470C385009E12D09E52E0A082B65
:100B7A0009E9230A06200C212A09A14800000A00D3
:100B8A003F3F3F00790AA2D5200314300509B91066
:100B9A00020404B9080104A2D52006025001042067
:100BAA0002689202B53E005034C0E07F203003193B
:100BBA007F30A20272067205500F120BE7C202C200
:100BCA0006C205C2087F30800F300503E9C0E01273
:100BDA000936300503D0E0F9D0E0B53ECC30051730
:100BEA007F30B9100C1209367F583004077F78809D
:100BFA0003B908031209363002057F2D0209367F30
:100C0A00202008F87F2B2006F322920280CF286E3C
:100C1A00756C6C2900D2011208FB3001F8C2017808
:100C2A003E30D50108F60209A12D50434958120851
:100C3A00FB2403B405004001E4900C339312092706
:0D0C4A00743A120927D203753E04020A868F
:10109D00BB010689828A83E0225002E722BBFE0251
:0910AD00E32289828A83E4932284
:1010B600BB010689828A83F0225002F722BBFE0119
:0210C600F32213
:1010C800FAE6FB0808E6F925F0F618E6CA3AF62229
:1010D800D083D082F8E4937012740193700DA3A3A7
:1010E80093F8740193F5828883E4737402936860BB
:0610F800EFA3A3A380DFBB
:10171500EFB40A07740D121720740A309811A899AE
:10172500B8130CC2983098FDA899C298B811F63034
:0717350099FDC299F599220C
:00000001FF
