:0300000002172EB6
:0C172E00787FE4F6D8FD75815B0217752A
:06000300000000000000F7
:1019AD007F037D0375320BE4F533F5347535017521
:1019BD003601753701C007C005783A7C00FDFB7A0A
:1019CD00007932FE7F061205DDD005D00712114DCC
:1019DD007F037D0275320BE4F533F53475350175F2
:1019ED003601753701C007C005783A7C00FDFB7ADA
:1019FD00007932FE7F061205DDD005D00712114D9C
:041A0D00D2B2D2B3CC
:011A110022B2
:081DC3007F187E55DEFEDFFCF7
:011DCB0022F5
:0F1D710090FE82E030E6F990FE82E054BFF0224F
:091DCC0090FE817401F0021D710A
:091DD50090FE817406F0021D71FC
:101CDB007F0190FE817403F0121D7190FE82E0541F
:041CEB0002C313FF1E
:011CEF0022D2
:101D510090FE82E04401F090FE817405F0021D7155
:101D610090FE82E054FEF090FE817405F0021D7138
:0E1D9E0090FE86EFF090FE817402F0021D713F
:101D2F00E4FF90FE817404F0121D7190FE87E0FFB6
:011D3F002281
:0818CC008E328F338D348B3511
:1018D40078367C007D007BFF7A0079037E007F02EE
:1018E4001205DDE532F536E533F53775BA8090FE3D
:1018F4008074E0F0A3E4F090FE82E030E70280EB35
:10190400121DCCE53454FEFF121D9E121CDBEF6049
:101914000280D8AF35121D9E121CDBEF600280CB13
:10192400AF36121D9E121CDBEF600280BEAF371271
:101934001D9E121CDBEF600280B1121DD5E4F5BAC6
:011944002280
:0417BA008F328D33AA
:1017BE0078347C007D007BFF7A0079057E007F0403
:1017CE001205DDE4FDFC75BA8090FE8074E0F0A396
:1017DE00E4F090FE82E030E70280EB121DCCE532A1
:1017EE0054FEFF121D9E121CDBEF600280D8AF3339
:1017FE00121D9E121CDBEF600280CB121DCCE53257
:10180E004401FF121D9E121CDBEF600280B8121DF8
:10181E002F7534008F35121D61121D2F7536008FF6
:10182E0037121D51121DD5E4F5BAE5354536FCE5E6
:04183E0037AE04FFBE
:011842002283
:10114D00EF1470030211E114700302124F147003B7
:10115D000212BD14700302132B1470030213992491
:10116D00056003021408E53A5401FFA80508800242
:10117D00C333D8FCF594E53A5402C313FFA8050810
:10118D008002C333D8FCF593E53BA805088002C364
:10119D0033D8FC90FE10F0E53CA805088002C3335F
:1011AD00D8FC90FE18F0E53DA805088002C333D8A1
:1011BD00FC90FE20F0E53EA805088002C333D8FC64
:1011CD0090FE28F0E53FA805088002C333D8FC90B7
:1011DD00FE30F022E53A5401FFA805088002C33322
:1011ED00D8FCF592E53A5402C313FFA80508800216
:1011FD00C333D8FCF591E53BA805088002C333D86D
:10120D00FC90FE11F0E53CA805088002C333D8FC24
:10121D0090FE19F0E53DA805088002C333D8FC9077
:10122D00FE21F0E53EA805088002C333D8FC90FEF0
:10123D0029F0E53FA805088002C333D8FC90FE31A4
:10124D00F022E53A5401FFA805088002C333D8FC0B
:10125D00F596E53A5402C313FFA805088002C3337F
:10126D00D8FCF595E53BA805088002C333D8FC9062
:10127D00FE12F0E53CA805088002C333D8FC90FEB1
:10128D001AF0E53DA805088002C333D8FC90FE2274
:10129D00F0E53EA805088002C333D8FC90FE2AF085
:1012AD00E53FA805088002C333D8FC90FE32F0223A
:1012BD00E53A5401FFA805088002C333D8FCF5B206
:1012CD00E53A5402C313FFA805088002C333D8FCC6
:1012DD00F5B1E53BA805088002C333D8FC90FE1399
:1012ED00F0E53CA805088002C333D8FC90FE1BF046
:1012FD00E53DA805088002C333D8FC90FE23F0E538
:10130D003EA805088002C333D8FC90FE2BF0E53FC4
:10131D00A805088002C333D8FC90FE33F022E53ACD
:10132D005401FFA805088002C333D8FCF5B4E53A93
:10133D005402C313FFA805088002C333D8FCF5B3CC
:10134D00E53BA805088002C333D8FC90FE14F0E5F8
:10135D003CA805088002C333D8FC90FE1CF0E53D87
:10136D00A805088002C333D8FC90FE24F0E53EA802
:10137D0005088002C333D8FC90FE2CF0E53FA8058C
:10138D00088002C333D8FC90FE34F022E53A5401B4
:10139D00FFA805088002C333D8FCF5CAE53A54020C
:1013AD00C313FFA805088002C333D8FCF5C9E53B7C
:1013BD00A805088002C333D8FC90FE15F0E53CA8C3
:1013CD0005088002C333D8FC90FE1DF0E53DA8054D
:1013DD00088002C333D8FC90FE25F0E53EA8050831
:1013ED008002C333D8FC90FE2DF0AF05E53FA80772
:0C13FD00088002C333D8FC90FE35F022BB
:101B6F00252E336656202000252E33664120200077
:101B7F00252E326657202020002530322E643A253C
:101B8F0030322E643A2530322E64000000000000FF
:051B9F00000000000041
:1014090078227C007D007BFF7A1B799A7E007F0A17
:101419001205DDE4F52CF52DF531F530F52FF52E16
:10142900121699E4FF121CAAE4FF121BFD1219AD52
:10143900E4FB7D807F1F7E3C1218CC7B057D807F7D
:10144900007E101218CC121D1A7D027F811217BA64
:101459008E2C8F2DE52D7803CEA2E713CE13D8F865
:10146900FDAC06EC1201197B6F7A127983783B1275
:10147900000E8F318E308D2F8C2E7535FF75361BF2
:1014890075376F8F3B8E3A8D398C387B007A0079AE
:1014990022120D3A7B007A007922753710E4FDFF9C
:1014A900121B26E4F52CF52DF531F530F52FF52E27
:1014B900FB7D807F1F7E3C1218CC7D047F81121733
:1014C900BA8E2C8F2DAC2CAD2DEC120119121DAC3E
:1014D9001201528E2C8F2DAC2CAD2DEC1201197BE3
:1014E900177AB77951783912000E8F318E308D2FD6
:1014F9008C2E7535FF75361B7537778F3B8E3A8D78
:10150900398C387B007A007922120D3A7B007A00F7
:1015190079227537107D02E4FF121B26E4F52CF5BC
:101529002DF531F530F52FF52E7D037F811217BA90
:101539008E2C8F2DAC2CAD2DEC1201197B6F7A12EC
:101549007983783B12000E8F318E308D2F8C2E755A
:1015590035FF75361B75377F8F3B8E3A8D398C3841
:101569007B007A007922120D3A7B007A0079227584
:1015790037087D027F45121B26E4F52CF52DF53140
:10158900F530F52FF52E7535FF75361B75378885BE
:10159900543885553985523A85533B85503C855198
:1015A9003DFB7A007922120D3A7B007A0079227587
:1015B90037087D037F45121B267FF47E01121C909C
:0315C900021452B7
:100706000000000000000000002F000000000700AD
:10071600070000147F147F1400242A7F2A12006227
:1007260064081323003649552250000005030000D3
:1007360000001C224100000041221C000014083E5B
:1007460008140008083E0808000000A06000000821
:100756000808080800006060000000201008040275
:10076600003E5149453E0000427F40000042615133
:100776004946002141454B31001814127F100027CD
:1007860045454539003C4A49493000017109050390
:1007960000364949493600064949291E00003636C1
:1007A6000000000056360000000814224100001424
:1007B6001414141400004122140800020151090601
:1007C60000324959513E007C1211127C007F494982
:1007D6004936003E41414122007F4141221C007FB3
:1007E60049494941007F09090901003E4149497AC1
:1007F600007F0808087F0000417F4100002040413B
:100806003F01007F08142241007F40404040007FA6
:10081600020C027F007F0408107F003E4141413EEA
:10082600007F09090906003E4151215E007F091932
:1008360029460046494949310001017F0101003F2F
:100846004040403F001F2040201F003F4038403FAF
:100856000063140814630007087008070061514913
:10086600454300007F41410000552A552A550000A6
:1008760041417F0000040201020400404040404024
:10088600000001020400002054545478007F4844BC
:10089600443800384444442000384444487F0038F3
:1008A6005454541800087E0901020018A4A4A47C1C
:1008B600007F080404780000447D400000408084E6
:1008C6007D00007F102844000000417F4000007C2E
:1008D60004180478007C080404780038444444383A
:1008E60000FC242424180018242418FC007C080486
:1008F600040800485454542000043F444020003C5F
:100906004040207C001C2040201C003C4030403CE5
:10091600004428102844001CA0A0A07C0044645475
:100926004C441414141414140000000000000000B9
:100936000000000000000000000000F800000000B9
:10094600000000333000000000100C06100C0600FA
:10095600000000000000000040C07840C078400061
:10096600043F04043F040400007088FC08300000C3
:10097600001820FF211E0000F008F000E01800001B
:1009860000211C031E211E0000F0088870000000D4
:100996001E2123241927211010160E000000000026
:1009A6000000000000000000000000E01804020043
:1009B600000000071820400000020418E0000000B4
:1009C6000040201807000000404080F080404000B2
:1009D6000202010F01020200000000F00000000008
:1009E6000101011F010101000000000000000000DC
:1009F60080B0700000000000000000000000000051
:100A060000010101010101010000000000000000D9
:100A16000030300000000000000000008060180474
:100A2600006018060100000000E010080810E00051
:100A3600000F102020100F00001010F8000000001A
:100A46000020203F20200000007008080888700061
:100A560000302824222130000030088888483000E1
:100A66000018202020110E000000C02010F8000001
:100A760000070424243F240000F80888880808009A
:100A86000019212020110E0000E0108888180000AF
:100A9600000F112020110E0000380808C838080081
:100AA6000000003F00000000007088080888700001
:100AB600001C222121221C0000E010080810E00082
:100AC6000000312222110F00000000C0C00000000B
:100AD6000000003030000000000000800000000030
:100AE6000000806000000000000080402010080028
:100AF60000010204081020004040404040404000F1
:100B060004040404040404000008102040800000CB
:100B16000020100804020100007048080808F000D0
:100B26000000003036010000C030C828E810E000A0
:100B36000718272423140B000000C038E00000002B
:100B4600203C23020227382008F888888870000095
:100B5600203F202020110E00C03008080808380069
:100B6600071820202010080008F808080810E000E0
:100B7600203F202020100F0008F88888E808100081
:100B8600203F20202320180008F88888E808100055
:100B9600203F200003000000C0300808083800008D
:100BA60007182020221E020008F808000008F8088E
:100BB600203F210101213F20000808F80808000015
:100BC6000020203F2020000000000808F808080048
:100BD600C08080807F00000008F888C028180800C0
:100BE600203F20012638200008F8080000000000F9
:100BF600203F20202020300008F8F800F8F80800F0
:100C0600203F003F003F200008F830C00008F808E9
:100C1600203F200007183F00E01008080810E000F9
:100C26000F10202020100F0008F808080808F00010
:100C3600203F210101010000E01008080810E00033
:100C46000F18242438504F0008F8888888887000C8
:100C5600203F2000030C3020007088080808380068
:100C66000038202121221C00180808F8080818005E
:100C76000000203F2000000008F808000008F808DF
:100C8600001F202020201F000878880000C8380890
:100C9600000007380E010000F80800F80008F80008
:100CA600033C0700073C03000818688080681808A2
:100CB60020302C03032C30200838C800C838080020
:100CC6000000203F2000000010080808C83808006F
:080CD60020382621202018001F
:101A12007F057D0575320BE4F533F53475350175B7
:101A22003601753701C007C005783A7C00FDFB7AA4
:101A3200007932FE0F1205DDD005D00712114D7F5D
:101A4200057D04753201E4F533F5347535017536DB
:101A520001753701C007C005783A7C00FDFB7A00AA
:101A62007932FE0F1205DDD005D00712114DD2CC0E
:021A7200D2CDD3
:011A7400224F
:101C9000EF4E60157D087C07ED1DAA0470011C4AFB
:091CA00070F6EF1F70EA1E80E7E8
:011CA9002218
:101CAA008F32E5327006FD7FA6121BACE532B40115
:091CBA0007E4FD7FA7121BAC2218
:101BFD008F32E532700DFD7FC8121BACE4FD7FA165
:101C0D00121BACE532B4010EE4FD7FC0121BACE437
:071C1D00FD7FA0121BAC22A9
:081DDE007F01AE071FEE70FA51
:011DE60022DA
:0F1D8000D2CDD2CC121DDEC2CD121DDEC2CC22BE
:0A1DB900C2CDD2CC121DDED2CD2225
:0F1D8F00D2CD121DDED2CC121DDEC2CC021DDE63
:021C4B00AD07E3
:101C4D00E4FCC2CCED30E704D2CD8002C2CD121D32
:101C5D00DED2CC121DDEC2CCED25E0FD0CBC08E2BF
:011C6D002254
:081BA400E4FD121BACE4FDFF9F
:101BAC00AB05AA07121D807F78121C4B121D8FEB00
:101BBC0060047F408002E4FF121C4B121D8FAF02A9
:091BCC00121C4B121D8F021DB901
:101C6E00A907ED24B0FFE4FD121BACE954F0C454F7
:101C7E000F4410FFE4FD121BACE9540FFFE4FD020C
:021C8E001BAC8D
:101CF000E4FD7F8D121BACE4FD7F14121BACE4FDF0
:051D00007FAF021BACE7
:101D0500E4FD7F8D121BACE4FD7F10121BACE4FDDE
:051D15007FAE021BACD3
:101BD500E4F9E924B0FF121BA4E4FD7F10121BAC4D
:101BE500E4F5327D01E4FF121BAC0532E532C39406
:071BF5008040F009B904DB98
:011BFC0022C6
:0415CC008F398D3A8C
:1015D000E4F53DE53CC313FDF53EE4F53FF540E59C
:1015E0003CB408087541007542068029E53C131398
:1015F00013541FFF7E00E53C5407600590000180F6
:1016000003900000E5822FFFE5833EFE7C0012067A
:101610005B8E418F42EB24E0F53DAD3AAF39121CB1
:101620006EE4F53FF540C3E5409542E53F954150F6
:1016300067E53EFD7C00AE3FAF4012066DED4C709D
:101640000FE53C64086009AD3A053AAF39121C6EEB
:10165000E53CB4081075F006E53DA42406F582E5E6
:10166000F034078013E53CB4102E75F010E53DA46E
:10167000242EF582E5F03409F583E5822540F582D4
:10168000E583353FF583E493FF7D01121BAC0540F4
:08169000E5407092053F808ED9
:01169800222F
:041CC3008F1DA905C3
:101CC7007F017E00AD0119ED6009AD1D7C00120694
:031CD7005B80F13E
:011CDA0022E7
:081843008F138D148A158B161A
:10184B00E4F51BF51CE518B40803751B02E4F51948
:10185B00E519C395175069C3E517951914FD7F0A50
:10186B00121CC3AC15AD16CFCDCFCECCCE12066DA0
:10187B007C007D0A12066D8D1AE51C7025E5171488
:10188B00FFE519C39F501BE51A7014E518C3132508
:10189B001B8519F0A42513FF85183C7B2080187538
:1018AB001C01E518C313251B8519F0A42513FFE5AF
:1018BB001A2430FB85183CAD141215CC05198090F9
:0118CB0022FA
:0A1B26008F328D338B348A358936F7
:101B3000E4F538AB34AA35A93685388275830012AE
:101B4000061C602AAF3805388F8275830012061C88
:101B5000FB85373CAD33AF321215CCE537B4080402
:0E1B600074068004E537C3132532F53280C5C4
:011B6E002254
:061A75008F568D578B58BF
:101A7B00E559131313541FFF7E00E55954077C00DF
:101A8B0060047D0180027D00ED2FFFEC3EFEAD5921
:101A9B007C0012065B8E5A8F5B900000C3E582952B
:101AAB005BE583955A501CE559FD7C00AF82AE83F4
:101ABB0012066DED4C700CAD570557AF56121C6EE0
:031ACB00A380D91C
:011ACE0022F5
:061945008F088D098B0ADA
:10194B00E4F50FF510E50B131313541FFFE50B54C0
:10195B000760047E0180027E00EF2EF50BE4F5118B
:10196B00E511C3950B503AE5112509FDAF08121C83
:10197B006EE4F512E512C3950A5022AB0CAA0DA921
:10198B000E0510E510AE0F7002050F14F5828E8355
:10199B0012061CFF7D01121BAC051280D7051180AE
:0119AB00BF7C
:0119AC002218
:10169900121A127FAE121BA47F10121BA4E4FD7F45
:1016A900B0121BACE4FD7F81121BACE4FD7FFF127D
:1016B9001BACE4FD7FA1121BACE4FD7FA6121BACA1
:1016C900E4FD7FA8121BACE4FD7F1F121BACE4FDF7
:1016D9007FC8121BACE4FD7FD3121BA6E4FD7FD5A6
:1016E900121BACE4FD7F80121BACE4FD7FD9121BF9
:1016F900ACE4FD7F1F121BACE4FD7FDA121BA6E4EC
:10170900FD7FDB121BACE4FD7F40121BACE4FD7FC7
:101719008D121BACE4FD7F14121BAC121BD5E4FD2A
:051729007FAF021BACC4
:101D4000025000000252000002540000024E000047
:101D1A0075BA80E4F589758A30758CF8D28CD2A9A7
:051D2A00D2AFF5BA2262
:03000B00021ACF07
:041ACF00C0E0C0D0E3
:101AD300054FE54F7002054EB4E813E54EB4030E0F
:101AE3000551E55170020550754E00754F00E551E3
:101AF300643C45507028F550F5510553E553700289
:101B03000552643C45527016F552F5530555E5559B
:0E1B130070020554646445547004F554F55591
:051B2100D0D0D0E0323D
:10000E00EC4D6011E8497017ED33EC3304600DE4EC
:10001E00FCFFFEFD22E933E8330470F80201BE1244
:10002E00018958046009E4CC248150062850090245
:10003E0001C82840030201C5C0E0EB4A7044B980F4
:10004E0006D0E0FB0201B4EF4E701CBD8008EBFF42
:10005E00EAFEE9FD80EBE98DF0A4FEE5F00200F783
:10006E00E9CDF9EAFEEBFFEF89F0A4FCE5F0CE89CD
:10007E00F0A42EFFE435F0CD89F0A42DFEE435F08A
:10008E008067EF4E7005BD80D780C3EF8BF0A4ACB8
:10009E00F0EE8BF0A42CFCE435F0F8EF8AF0A42CF3
:1000AE00E5F038FCE433CB8DF0A42CFCE5F03BF806
:1000BE00EE8AF0A42CFCE5F038F8E433CF89F0A4F6
:1000CE002CFCE5F038CF3400CE89F0A42FFFE5F0FC
:1000DE003EFEE433C98DF0A42EFEE5F039CD8AF054
:1000EE00A42FFFE5F03EFEE43DFD33D0E0FB5007CC
:1000FE000BBB000F0201C8EC2CFCEF33FFEE33FEFE
:06010E00ED33FD0201A02B
:1001140075F020800E75F010800575F0087D007E66
:10012400007F003392D530D5031206C2EC33401061
:10013400EF33FFEE33FEED33FDEC33FCD5F0ED226F
:0E014400E5F0247EA2D513CC92E7CDCEFF22AB
:10015200EDD2E7CD33EC3392D524814006E4FFFEA5
:10016200FDFC22FCE4CFCECDCC24E0501174FF8004
:10017200EDC3CC13CCCD13CDCE13CECF13CF0470A1
:07018200F030D5DE0206C2D9
:100CDE00E5492435F8E605492278323007027835A1
:100CEE00E475F0011206D00206032000EB7F2ED22F
:100CFE00008018EF540F2490D43440D4FF30040BEE
:100D0E00EF24BFB41A0050032461FFE54A600215B8
:100D1E004A054DE54D7002054C30070D7832E475ED
:100D2E00F0011206D0EF020649021C247403D2070A
:100D3E008003E4C207F5498B328A338934E4F54ADD
:100D4E00F54CF54DE54A60077F20120D1980F575BB
:100D5E004BFFC201C200C202C203C205C206C208D4
:100D6E00120CE7FF700D3007057F00120D2AAF4DF4
:100D7E00AE4C22B4255FC2D5C204120CE7FF24D0BC
:100D8E00B40A00501A75F00A784A30D50508B6FF35
:100D9E000106C6A426F620D5047002D20380D924FB
:100DAE00CFB41A00EF5004C2E5D204021017D201DC
:100DBE0080C6D20080C0D20280BCD2D580BAD20505
:100DCE0080B47F20120D192002077401B54A00402D
:100DDE00F1120CDEFF120D19020D52D208D206804E
:100DEE0095120CDEFB120CDEFA120CDEF94A4B7079
:100DFE0006790E7A117BFF20022EE54A602A7E00CC
:100E0E008E8275830012061C60060EEE654B70F026
:100E1E00C2D5EBC0E0EAC0E0E9C0E0EE121077D038
:100E2E00E0F9D0E0FAD0E0FB120603FF60AAEBC0B7
:100E3E00E0EAC0E0E9C0E0120D19D0E02401F9D0DB
:100E4E00E03400FAD0E0FBE54B0460DCD54BD980F2
:100E5E0087D20280A212105A60F7E54B700104127D
:100E6E0001D3A94B600DE54B600914F54B1211012E
:100E7E00EF60F3EA30E702F404C3995077EAF42501
:100E8E004B0430E701E404F54B800D12105A60C19B
:100E9E00EA054B254B1201D3EA7848F630E701E418
:100EAE00254B04D54B0420050114121077E4C0E045
:100EBE001211017848E6601320E70714F6120D01AF
:100ECE00802204F6D0E014C0E07F00120D01E54B45
:100EDE006007120CF8154B800B300503120CF8D07E
:100EEE00E0020D52D0E00480C512105A60A0E54B0E
:100EFE00041201D37848EAF6E54B2005026001049E
:050F0E0024041210771D
:100F130074FF04C0E0121101120D01E54B2005021C
:100F23006003120CF8D0E0B54BE87F45120D0B7847
:100F330048E67F2B30E7047F2DF404C0E0120D193F
:100F4300D0E075F00A84C0F0120D02D0E0120D0259
:100F5300020D52791080027908C206C2088008D2B5
:100F6300D5790A8004790AC2D5E54B047002F54BA2
:100F7300E4FAFDFEFF120CDEFC7B08200113120CC9
:100F8300DEFD7B1030000A120CDEFE120CDEFF7B4E
:100F930020EC3382D592D55013C3E43000069FFF73
:100FA300E49EFEE42001039DFDE49CFCE4CBF8C237
:100FB30001EC700CCFCECDCCE824F8F870F3801799
:100FC300C3EF33FFEE33FEED33FDEC33FCEB33FBCA
:100FD300994002FB0FD8E9EB300105F8D0E0C44893
:100FE300B201C0E00AEC4D4E4F78207B0070C2EA9C
:100FF300B54B0040BCC0E0121079D0F0D0E0200126
:1010030004C4C0E0C4B201C0F0120D02D0F0D5F0A8
:10101300EB020D521206E00DEF530F56580DC04C64
:101023000DBC420F5A4F0F62440F62490DD5430F57
:1010330068550E99460EF7450E6347112E500DC4A1
:101043002D0DC82E0DEB2B0DCC230DE92011172AE6
:101053000D844800000DE3E54BB4FF03754B061206
:101063000CDEFC120CDEFD120CDEFE120CDEFF7831
:1010730041020202790AA2D5200314300509B910EE
:10108300020404B9080104A2D52006025001042079
:1010930002689202B54A005034C0E07F2030031941
:1010A3007F30A20272067205500F1210D0C202C224
:1010B30006C205C2087F30800F300503E9C0E01285
:1010C3000D19300503D0E0F9D0E0B54ACC3005174F
:1010D3007F30B9100C120D197F583004077F7880C8
:1010E30003B90803120D193002057F2D020D197F74
:1010F300202008F87F2B2006F322920280CF7F0066
:10110300B4070050052441F8E6FF22286E756C6C85
:101113002900D201120CDE3001F8C201784A30D521
:101123000108F6020D842D50434958120CDE2403A6
:10113300B405004001E490112993120D0A743A1288
:0A1143000D0AD203754A04020F568C
:0D1DAC00ED33EC3360065004EC6480FC2243
:10018900E9D2E7C933E833F892D5EDD2E7CD33ECBC
:0701990033FC5002B2D52235
:1001A000EC30E7100FBF000C0EBE00080DBD0004C0
:1001B0000BEB6014A2D5EB13FCED92E7FD2274FF6C
:1001C000FCFDFEFF22E480F8A2D574FF13FC7D80C5
:0301D000E480EFD9
:1001D300F920E72824F950037907E4F42402FB18F3
:1001E300DBFDE624FB5014E9600DE4F618E604F6A3
:0F01F300B40A08E4F6D9F57401F60A22C2D5223F
:10020200ED33EC3392D5FA602AB4FF33EDC2E77BCB
:10021200FF60067A027927E4227A02793020D50437
:100222007A02792B224E614E002B494E46002D490F
:100232004E4600E47A08F608DAFC7B00740722E8EE
:10024200C0E0ECC0E0EDC0E0EEC0E0EFC0E0EA7577
:10025200F010A4CAABF075F04DA42BFBE435F0FC12
:10026200EA2410FAEB34C5FBEC34D9FCEDC2E7FF0B
:1002720075F056A4F42411C5F0F434C58FF0A42A05
:10028200E5F03BE43CF620E7141204CDD0E0FFD0C9
:10029200E0FED0E0FDD0E0FC1204008014F4041271
:1002A20004CDD0E0FFD0E0FED0E0FDD0E0FC1200B3
:1002B2000ED0E0F8E6FAEDD2E7CD33EC332482FB40
:1002C200E4C3CF33CFCE33CECD33CD33DBF37B0795
:1002D20075F00A846004F6081B0AE5F0F6088FF050
:1002E200740AA4FFACF08EF0740AA42CFEACF05099
:1002F200010C8DF0740AA42CFDE435F0F608DBDE67
:030302007407225B
:100305000201BEE86480F8E933E83360110460F067
:10031500ED33EC337009E8FCE9FDEAFEEBFF22045E
:1003250060DED3EB9FEA9EE99DE8C2E78CF0C2F759
:1003350095F0400CE8CCF8E9CDF9EACEFAEBCFFB25
:1003450012018985D0F05804700320D5B3E80470F4
:10035500075002B2D50201C892D5EC0460F7E4CC8F
:10036500C0E0C398F8603B94186008400DD0E0FBEE
:100375000201A0E4FBFAC9FC8028E830E406E4C9E0
:10038500FBE4CAFCE830E305E4C9CACBFCE8540742
:100395006010F8C3E913F9EA13FAEB13FBEC13FC4D
:1003A500D8F130F52FC3E49CFCEF9BFFEE9AFEEDF0
:1003B50099FDD0E0FBEF4E4D4C701222DB0302019C
:1003C500C5EC2CFCEF33FFEE33FEED33FDED30E7EE
:1003D500EB0201A0EF2BFFEE3AFEED39FDD0E0FB7D
:1003E50050130BBB00030201C8ED13FDEE13FEEF26
:0803F50013FFEC13FC0201A050
:1003FD000201C8EC5D046005E8590470030201BEFA
:10040D00120189580460F6EC4860F2EC7004FDFEB0
:10041D00FF22C860DB2481C85009C39860025006D2
:10042D000201C59850CAF582E9294B4A7005AB8285
:10043D000201B475F0007C1A7880C3EF9BEE9AED43
:10044D0099400DC3EF9BFFEE9AFEED99FDE842F04A
:10045D00DC23ACF0D0E0FFD0E0FED0E0FDAB82209D
:10046D00E7101BEB60BAEC2CFCEF33FFEE33FEED27
:10047D0033FD0201A0E803F830E705C0F075F00088
:10048D00EF2FFFEE33FEED33FD40B830E7C280AA0B
:10049D003F8000004120000042C80000447A000067
:1004AD00461C400047C35000497424004B189680E9
:1004BD004CBEBC205A0E1BCA6753C21C749DC5AEE0
:1004CD00FB60065407601C23231204FBEB543860B9
:1004DD00091204E71204F612000EECF8EDF9EEFA2B
:1004ED00EFCB22EB1204F680F1543803241C900458
:1004FD009DFE93FC0EEE93FD0EEE930ECE93FF221A
:10173A00021409E493A3F8E493A34003F68001F2A8
:10174A0008DFF48029E493A3F85407240CC8C333B0
:10175A00C4540F4420C8834004F456800146F6DF7F
:10176A00E4800B0102040810204080901D40E47EB2
:10177A00019360BCA3FF543F30E509541FFEE49374
:10178A00A360010ECF54C025E060A840B8E493A33B
:10179A00FAE493A3F8E493A3C8C582C8CAC583CA66
:1017AA00F0A3C8C582C8CAC583CADFE9DEE780BE1E
:011D50000092
:10050D00E709F608DFFA8046E709F208DFFA803ED0
:10051D0088828C83E709F0A3DFFA8032E309F608BD
:10052D00DFFA8078E309F208DFFA807088828C8325
:10053D00E309F0A3DFFA806489828A83E0A3F608D9
:10054D00DFFA805889828A83E0A3F208DFFA804CB3
:10055D0080D280FA80C680D4806980F2803380108A
:10056D0080A680EA809A80A880DA80E280CA8033F3
:10057D0089828A83ECFAE493A3C8C582C8CCC5836B
:10058D00CCF0A3C8C582C8CCC583CCDFE9DEE7803B
:10059D000D89828A83E493A3F608DFF9ECFAA9F0BA
:1005AD00EDFB2289828A83ECFAE0A3C8C582C8CC10
:1005BD00C583CCF0A3C8C582C8CCC583CCDFEADE29
:1005CD00E880DB89828A83E493A3F208DFF980CC8B
:1005DD0088F0EF60010E4E60C388F0ED2402B40484
:1005ED000050B9F582EB2402B4040050AF2323452B
:0605FD00822390055D73EE
:10060300BB010689828A83E0225002E722BBFE02F5
:09061300E32289828A83E4932228
:10061C00BB010CE58229F582E5833AF583E0225093
:10062C0006E92582F8E622BBFE06E92582F8E222DD
:0D063C00E58229F582E5833AF583E49322F7
:10064900BB010689828A83F0225002F722BBFE0190
:02065900F3228A
:10065B00EF8DF0A4A8F0CF8CF0A428CE8DF0A42EB3
:02066B00FE226D
:10066D00BC000BBE0029EF8DF084FFADF022E4CC71
:10067D00F875F008EF2FFFEE33FEEC33FCEE9DEC3A
:10068D00984005FCEE9DFE0FD5F0E9E4CEFD22ED80
:10069D00F8F5F0EE8420D21CFEADF075F008EF2FCA
:1006AD00FFED33FD4007985006D5F0F222C398FDBB
:0506BD000FD5F0EA2258
:0E06C200C3E49FFFE49EFEE49DFDE49CFC2249
:1006D000FAE6FB0808E6F925F0F618E6CA3AF6222B
:1006E000D083D082F8E4937012740193700DA3A3A9
:1006F00093F8740193F5828883E4737402936860BD
:06070000EFA3A3A380DFBC
:101C2400EFB40A07740D121C2F740A309811A89986
:101C3400B8130CC2983098FDA899C298B811F63020
:071C440099FDC299F59922F8
:00000001FF
