:030000000218E003
:0C18E000787FE4F6D8FD758159021504EC
:1018780025640000000000000000000000000000D7
:01188800005F
:1015D9007F037D03752C0BE4F52DF52E752F017511
:1015E9003001753101C007C00578347C00FDFB7AF4
:1015F90000792CFE7F06120FE3D005D007120C5795
:101609007F037D02752C0BE4F52DF52E752F0175E1
:101619003001753101C007C00578347C00FDFB7AC3
:1016290000792CFE7F06120FE3D005D007120C5764
:04163900D2B2D2B3A4
:01163D00228A
:0818F6007F187E55DEFEDFFCC9
:0118FE0022C7
:0F18890090FE82E030E6F990FE82E054BFF0223C
:0918FF0090FE817401F0021889C9
:0919080090FE817406F0021889BA
:101839007F0190FE817403F012188990FE82E054B2
:0418490002C313FFC4
:01184D002278
:08180900121898753C008F3D98
:1018110090FE82E054FEF090FE817405F00218897A
:0E18C50090FE86EFF090FE817402F00218890A
:0E18980090FE817404F090FE87E0FF12188924
:0118A600221F
:0812A1008E2C8F2D8D2E8B2F5A
:1012A90078307C007D007BFF7A18797B7E007F0295
:1012B900120FE3E52CF530852D3175BA8090FE804B
:1012C90074E0F0A3E4F090FE82E030E70280EB7571
:1012D90048087B31E4FDFF1211D41218FFAF2E121A
:1012E90018C5121839EF600280D07548087B32E4BE
:1012F900FD7F0A1211D4AF2F1218C5121839EF60E9
:101309000280B77548087B33E4FD7F141211D47F3E
:10131900901218C5121839EF6002809E7548087B33
:1013290034E4FD7F1E1211D47F801218C5121839BA
:10133900EF600280857548087B35E4FD7F2812112E
:10134900D4121908E4F5BA7548087B36FD7F3202D4
:0213590011D4AD
:0410FE008F2C8D2D79
:10110200782E7C007D007BFF7A18797D7E007F0A35
:10111200120FE378387C007D007BFF7A1879877E96
:10112200007F02120FE3E4F53AF53BF53CF53D751D
:10113200BA8090FE8074E0F0A3E4F090FE82E0308A
:10114200E70280EB7548087B37E4FDFF1211D412E9
:1011520018FFAF2C1218C5121839EF600280D07533
:1011620048087B38E4FDFF1211D4AF2D1218C512C6
:101172001839EF600280B87548087B38E4FDFF1229
:1011820011D41218FFE52C4401FF1218C5121839A8
:10119200EF6002809A12180912180912180912191E
:1011A20008E4F5BAF53A85393B7541FF7542187581
:1011B2004378853C44853D45FB7A00792E120957D8
:1011C2007B007A00792E7543107D02E4FF1216A18E
:0211D20080FE9D
:100C5700EF147003020CEB147003020D59147003A8
:100C6700020DC7147003020E35147003020EA3247D
:100C7700056003020F12E5345401FFA8050880023E
:100C8700C333D8FCF594E5345402C313FFA8050811
:100C97008002C333D8FCF593E535A805088002C365
:100CA70033D8FC90FE10F0E536A805088002C33360
:100CB700D8FC90FE18F0E537A805088002C333D8A2
:100CC700FC90FE20F0E538A805088002C333D8FC65
:100CD70090FE28F0E539A805088002C333D8FC90B8
:100CE700FE30F022E5345401FFA805088002C33323
:100CF700D8FCF592E5345402C313FFA80508800217
:100D0700C333D8FCF591E535A805088002C333D86D
:100D1700FC90FE11F0E536A805088002C333D8FC25
:100D270090FE19F0E537A805088002C333D8FC9078
:100D3700FE21F0E538A805088002C333D8FC90FEF1
:100D470029F0E539A805088002C333D8FC90FE31A5
:100D5700F022E5345401FFA805088002C333D8FC0C
:100D6700F596E5345402C313FFA805088002C33380
:100D7700D8FCF595E535A805088002C333D8FC9063
:100D8700FE12F0E536A805088002C333D8FC90FEB2
:100D97001AF0E537A805088002C333D8FC90FE2275
:100DA700F0E538A805088002C333D8FC90FE2AF086
:100DB700E539A805088002C333D8FC90FE32F0223B
:100DC700E5345401FFA805088002C333D8FCF5B207
:100DD700E5345402C313FFA805088002C333D8FCC7
:100DE700F5B1E535A805088002C333D8FC90FE139A
:100DF700F0E536A805088002C333D8FC90FE1BF047
:100E0700E537A805088002C333D8FC90FE23F0E538
:100E170038A805088002C333D8FC90FE2BF0E539CB
:100E2700A805088002C333D8FC90FE33F022E534CE
:100E37005401FFA805088002C333D8FCF5B4E53494
:100E47005402C313FFA805088002C333D8FCF5B3C7
:100E5700E535A805088002C333D8FC90FE14F0E5F9
:100E670036A805088002C333D8FC90FE1CF0E5378E
:100E7700A805088002C333D8FC90FE24F0E538A803
:100E870005088002C333D8FC90FE2CF0E539A8058D
:100E9700088002C333D8FC90FE34F022E5345401B5
:100EA700FFA805088002C333D8FCF5CAE53454020D
:100EB700C313FFA805088002C333D8FCF5C9E5357D
:100EC700A805088002C333D8FC90FE15F0E536A8C4
:100ED70005088002C333D8FC90FE1DF0E537A8054E
:100EE700088002C333D8FC90FE25F0E538A8050832
:100EF7008002C333D8FC90FE2DF0AF05E539A80773
:0C0F0700088002C333D8FC90FE35F022B5
:0D18D300256400000000000000000000007F
:1015040078227C007D007BFF7A1879D67E007F0AE2
:10151400120FE3E4FFFEFDFC12135BE4FF1217F06D
:10152400E4FF1217431215D97B057D807F817E026B
:101534001212A17FF47E011217D67D057F8012104E
:10154400FEEE7C00FD7541FF7542187543D38C4453
:10155400F5457B007A0079221209577B007A0079DD
:0D156400227543107D02E4FF1216A180FEE7
:100003000000000000000000002F000000000700B7
:10001300070000147F147F1400242A7F2A12006231
:1000230064081323003649552250000005030000DD
:1000330000001C224100000041221C000014083E65
:1000430008140008083E0808000000A0600000082B
:10005300080808080000606000000020100804027F
:10006300003E5149453E0000427F4000004261513D
:100073004946002141454B31001814127F100027D7
:1000830045454539003C4A4949300001710905039A
:1000930000364949493600064949291E00003636CB
:1000A300000000005636000000081422410000142E
:1000B300141414140000412214080002015109060B
:1000C30000324959513E007C1211127C007F49498C
:1000D3004936003E41414122007F4141221C007FBD
:1000E30049494941007F09090901003E4149497ACB
:1000F300007F0808087F0000417F41000020404145
:100103003F01007F08142241007F40404040007FB0
:10011300020C027F007F0408107F003E4141413EF4
:10012300007F09090906003E4151215E007F09193C
:1001330029460046494949310001017F0101003F39
:100143004040403F001F2040201F003F4038403FB9
:10015300006314081463000708700807006151491D
:10016300454300007F41410000552A552A550000B0
:1001730041417F000004020102040040404040402E
:10018300000001020400002054545478007F4844C6
:10019300443800384444442000384444487F0038FD
:1001A3005454541800087E0901020018A4A4A47C26
:1001B300007F080404780000447D400000408084F0
:1001C3007D00007F102844000000417F4000007C38
:1001D30004180478007C0804047800384444443844
:1001E30000FC242424180018242418FC007C080490
:1001F300040800485454542000043F444020003C69
:100203004040207C001C2040201C003C4030403CEF
:10021300004428102844001CA0A0A07C004464547F
:100223004C441414141414140000000000000000C3
:100233000000000000000000000000F800000000C3
:10024300000000333000000000100C06100C060004
:10025300000000000000000040C07840C07840006B
:10026300043F04043F040400007088FC08300000CD
:10027300001820FF211E0000F008F000E018000025
:1002830000211C031E211E0000F0088870000000DE
:100293001E2123241927211010160E000000000030
:1002A3000000000000000000000000E0180402004D
:1002B300000000071820400000020418E0000000BE
:1002C3000040201807000000404080F080404000BC
:1002D3000202010F01020200000000F00000000012
:1002E3000101011F010101000000000000000000E6
:1002F30080B070000000000000000000000000005B
:1003030000010101010101010000000000000000E3
:10031300003030000000000000000000806018047E
:10032300006018060100000000E010080810E0005B
:10033300000F102020100F00001010F80000000024
:100343000020203F2020000000700808088870006B
:1003530000302824222130000030088888483000EB
:100363000018202020110E000000C02010F800000B
:1003730000070424243F240000F8088888080800A4
:100383000019212020110E0000E0108888180000B9
:10039300000F112020110E0000380808C83808008B
:1003A3000000003F0000000000708808088870000B
:1003B300001C222121221C0000E010080810E0008C
:1003C3000000312222110F00000000C0C000000015
:1003D300000000303000000000000080000000003A
:1003E3000000806000000000000080402010080032
:1003F30000010204081020004040404040404000FB
:1004030004040404040404000008102040800000D5
:100413000020100804020100007048080808F000DA
:100423000000003036010000C030C828E810E000AA
:100433000718272423140B000000C038E000000035
:10044300203C23020227382008F88888887000009F
:10045300203F202020110E00C03008080808380073
:10046300071820202010080008F808080810E000EA
:10047300203F202020100F0008F88888E80810008B
:10048300203F20202320180008F88888E80810005F
:10049300203F200003000000C03008080838000097
:1004A30007182020221E020008F808000008F80898
:1004B300203F210101213F20000808F8080800001F
:1004C3000020203F2020000000000808F808080052
:1004D300C08080807F00000008F888C028180800CA
:1004E300203F20012638200008F808000000000003
:1004F300203F20202020300008F8F800F8F80800FA
:10050300203F003F003F200008F830C00008F808F3
:10051300203F200007183F00E01008080810E00003
:100523000F10202020100F0008F808080808F0001A
:10053300203F210101010000E01008080810E0003D
:100543000F18242438504F0008F8888888887000D2
:10055300203F2000030C3020007088080808380072
:100563000038202121221C00180808F80808180068
:100573000000203F2000000008F808000008F808E9
:10058300001F202020201F000878880000C838089A
:10059300000007380E010000F80800F80008F80012
:1005A300033C0700073C03000818688080681808AC
:1005B30020302C03032C30200838C800C83808002A
:1005C3000000203F2000000010080808C838080079
:1005D3002038262120201800000000FE020202001D
:1005E3000000007F40404000000C30C000000000CD
:1005F300000000010638C00000020202FE000000F5
:10060300004040407F00000000000402020204009A
:1006130000000000000000000000000000000000D7
:1006230080808080808080800002020400000000BF
:1006330000000000000000000000808080800000B7
:100643000019242222223F2008F8008080000000A5
:10065300003F112020110E00000000808080000068
:10066300000E112020201100000000808088F80077
:10067300000E112020103F200000808080800000A9
:10068300001F222222221300008080F0888888180D
:100693000020203F20200000000080808080800018
:1006A300006B94949493600008F8008080800000AD
:1006B300203F210000203F20008098980000000088
:1006C3000020203F202000000000008098980000B8
:1006D30000C08080807F000008F8000080808000D8
:1006E300203F24022D302000000808F800000000FD
:1006F3000020203F202000008080808080808000B8
:10070300203F20003F20003F808000808080000049
:10071300203F210000203F200000808080800000D7
:10072300001F202020201F00808000808000000008
:1007330080FFA12020110E00000000808080800037
:10074300000E112020A0FF80808080008080800028
:1007530020203F2120000100000080808080800055
:100763000033242424241900008080E080800000CA
:100773000000001F20200000808000000080800017
:10078300001F202020103F20808080000080808078
:1007930000010E3008060100808000800080808008
:1007A3000F300C030C300F0000808000808080002D
:1007B3000020312E0E312000808080000080808058
:1007C30080818E7018060100008080808080800008
:1007D3000021302C2221300000000000807C020226
:1007E30000000000003F404000000000FF00000048
:1007F30000000000FF0000000002027C80000000F7
:100803000040403F00000000000601010202040412
:1008130000000000000000000000F010101010FFA6
:1008230010101010F000000000000F04040404FF77
:10083300040404040F0000004040405F5555557503
:100843005555555F404040000040200F09498979C4
:100853000909090F2040000000FE02424ACA4A4A21
:10086300CA4A4A4202FE000000FF40504C43404047
:100873004F50505C40FF00000000F888888888FFD4
:1008830088888888F800000000001F080808087F8F
:10089300888888889F80F00080828282828282E2B8
:1008A300A2928A8682808000000000000040807F40
:1008B3000000000000000000101010FF10900888D6
:1008C3008888FF88888808000444827F01808040EC
:1008D300432C1028468180000010101010D030FFE8
:1008E30030D0121C1010000010080402010000FF99
:0808F3000000010204081000DE
:10163E007F057D05752C0BE4F52DF52E752F0175A7
:10164E003001753101C007C00578347C00FDFB7A8E
:10165E0000792CFE0F120FE3D005D007120C577F26
:10166E00057D04752C01E4F52DF52E752F017530D1
:10167E0001753101C007C00578347C00FDFB7A008E
:10168E00792CFE0F120FE3D005D007120C57D2CCD7
:02169E00D2CDAB
:0116A0002227
:1017D600EF4E60157D087C07ED1DAA0470011C4ABA
:0917E60070F6EF1F70EA1E80E7A7
:0117EF0022D7
:1017F0008F2CE52C7006FD7FA61216F2E52CB401A5
:0918000007E4FD7FA71216F22295
:101743008F2CE52C700DFD7FC81216F2E4FD7FA1EE
:101753001216F2E52CB4010EE4FD7FC01216F2E47A
:07176300FD7FA01216F22227
:081911007F01AE071FEE70FA22
:0119190022AB
:0F18A700D2CDD2CC121911C2CD121911C2CC223E
:0A18EC00C2CDD2CC121911D2CD22C8
:0F18B600D2CD121911D2CC121911C2CC021911B4
:02179100AD07A2
:10179300E4FCC2CCED30E704D2CD8002C2CD1219F5
:1017A30011D2CC121911C2CCED25E0FD0CBC08E21C
:0117B3002213
:0816EA00E4FD1216F2E4FDFF1D
:1016F200AB05AA071218A77F781217911218B6EB3A
:1017020060047F408002E4FF1217911218B6AF0204
:091712001217911218B60218EC2E
:1017B400A907ED24B0FFE4FD1216F2E954F0C45475
:1017C4000F4410FFE4FD1216F2E9540FFFE4FD028A
:0217D40016F20B
:10184E00E4FD7F8D1216F2E4FD7F141216F2E4FD14
:05185E007FAF0216F24D
:10186300E4FD7F8D1216F2E4FD7F101216F2E4FD03
:051873007FAE0216F239
:10171B00E4F9E924B0FF1216EAE4FD7F101216F289
:10172B00E4F52C7D01E4FF1216F2052CE52CC39495
:07173B008040F009B904DB56
:011742002284
:0411D4008F458D4670
:1011D800E4F549E548C313FDF54AE4F54BF54CE55C
:1011E80048B40808754D00754E068029E548131364
:1011F80013541FFF7E00E5485407600590000180E6
:1012080003900000E5822FFFE5833EFE7C0012106C
:10121800368E4D8F4EEB24E0F549AD46AF4512179B
:10122800B4E4F54BF54CC3E54C954EE54B954D5064
:1012380067E54AFD7C00AE4BAF4C121048ED4C7090
:101248000FE54864086009AD460546AF451217B476
:10125800E548B4081075F006E549A42403F582E5CD
:10126800F034008013E548B4102E75F010E549A459
:10127800242BF582E5F03402F583E582254CF582CE
:10128800E583354BF583E493FF7D011216F2054C97
:08129800E54C7092054B808EBD
:0112A000222B
:041821008F1DA90569
:101825007F017E00AD0119ED6009AD1D7C00121030
:031835003680F109
:01183800228D
:08147B008F138D148A158B16E6
:10148300E4F51BF51CE518B40803751B02E4F51914
:10149300E519C395175069C3E517951914FD7F0A1C
:1014A300121821AC15AD16CFCDCFCECCCE1210482D
:1014B3007C007D0A1210488D1AE51C7025E517146F
:1014C300FFE519C39F501BE51A7014E518C31325D4
:1014D3001B8519F0A42513FF8518487B20801875F8
:1014E3001C01E518C313251B8519F0A42513FFE57B
:1014F3001A2430FB851848AD141211D405198090B5
:0115030022C5
:0A16A1008F3E8D3F8B408A41894245
:1016AB00E4F544AB40AA41A94285448275830012FC
:1016BB001009602AAF4405448F827583001210090C
:1016CB00FB854348AD3FAF3E1211D4E543B408044C
:0E16DB0074068004E543C313253EF53E80C52A
:0116E90022DE
:0613F0008F528D538B5457
:1013F600E555131313541FFF7E00E55554077C0073
:1014060060047D0180027D00ED2FFFEC3EFEAD55B0
:101416007C001210368E588F59E4F556F557C3E501
:10142600579559E5569558504BE555FD7C00AE56F7
:10143600AF57121048ED4C7009AD530553AF521219
:1014460017B4E555B4102DE554C43354E0241BF508
:1014560082E43408F583E5822557F582E58335561F
:10146600F583E493FF7D011216F20557E55770AE3A
:04147600055680AAED
:01147A00224F
:061571008F088D098B0AB2
:10157700E4F50FF510E50B131313541FFFE50B5498
:101587000760047E0180027E00EF2EF50BE4F51163
:10159700E511C3950B503AE5112509FDAF08121760
:1015A700B4E4F512E512C3950A5022AB0CAA0DA9B3
:1015B7000E0510E510AE0F7002050F14F5828E832D
:1015C700121009FF7D011216F2051280D70511804E
:0115D700BF54
:0115D80022F0
:10135B0012163E7FAE1216EA7F101216EAE4FD7FDC
:10136B00B01216F2E4FD7F811216F2E4FD7FFF123C
:10137B0016F2E4FD7FA11216F2E4FD7FA61216F21F
:10138B00E4FD7FA81216F2E4FD7F1F1216F2E4FDB6
:10139B007FC81216F2E4FD7FD31216ECE4FD7FD565
:1013AB001216F2E4FD7F801216F2E4FD7FD91216BD
:1013BB00F2E4FD7F1F1216F2E4FD7FDA1216ECE465
:1013CB00FD7FDB1216F2E4FD7F401216F2E4FD7F87
:1013DB008D1216F2E4FD7F141216F212171BE4FDA8
:0513EB007FAF0216F2C5
:100F1300E709F608DFFA8046E709F208DFFA803EC0
:100F230088828C83E709F0A3DFFA8032E309F608AD
:100F3300DFFA8078E309F208DFFA807088828C8315
:100F4300E309F0A3DFFA806489828A83E0A3F608C9
:100F5300DFFA805889828A83E0A3F208DFFA804CA3
:100F630080D280FA80C680D4806980F2803380107A
:100F730080A680EA809A80A880DA80E280CA8033E3
:100F830089828A83ECFAE493A3C8C582C8CCC5835B
:100F9300CCF0A3C8C582C8CCC583CCDFE9DEE7802B
:100FA3000D89828A83E493A3F608DFF9ECFAA9F0AA
:100FB300EDFB2289828A83ECFAE0A3C8C582C8CC00
:100FC300C583CCF0A3C8C582C8CCC583CCDFEADE19
:100FD300E880DB89828A83E493A3F208DFF980CC7B
:100FE30088F0EF60010E4E60C388F0ED2402B40474
:100FF3000050B9F582EB2402B4040050AF2323451B
:061003008223900F6373CD
:10100900BB010CE58229F582E5833AF583E022509C
:1010190006E92582F8E622BBFE06E92582F8E222E6
:0D102900E58229F582E5833AF583E4932200
:10103600EF8DF0A4A8F0CF8CF0A428CE8DF0A42ECE
:02104600FE2288
:10104800BC000BBE0029EF8DF084FFADF022E4CC8C
:10105800F875F008EF2FFFEE33FEEC33FCEE9DEC55
:10106800984005FCEE9DFE0FD5F0E9E4CEFD22ED9B
:10107800F8F5F0EE8420D21CFEADF075F008EF2FE5
:10108800FFED33FD4007985006D5F0F222C398FDD6
:051098000FD5F0EA2273
:1008FB00E54D2441F8E6054D22783E30070278415C
:10090B00E475F0011210C802109D2000EB7F2ED26F
:10091B00008018EF540F2490D43440D4FF30040BD4
:10092B00EF24BFB41A0050032461FFE54E6002159B
:10093B004E0551E5517002055030070D783EE475B8
:10094B00F0011210C8EF0210B602176A7403D20737
:10095B008003E4C207F54D8B3E8A3F8940E4F54E98
:10096B00F550F551E54E60077F2012093680F5757D
:10097B004FFFC201C200C202C203C205C206C208B7
:10098B00120904FF700D3007057F00120947AF51A4
:10099B00AE5022B4255FC2D5C204120904FF24D085
:1009AB00B40A00501A75F00A784E30D50508B6FF18
:1009BB000106C6A426F620D5047002D20380D924E2
:1009CB00CFB41A00EF5004C2E5D204020B47D20198
:1009DB0080C6D20080C0D20280BCD2D580BAD205EC
:1009EB0080B47F201209362002077401B54E0040F7
:1009FB00F11208FBFF12093602096FD208D20680EA
:100A0B00951208FBFB1208FBFA1208FBF94A4B7014
:100A1B000679187A0C7BFF20022EE54E602A7E00A9
:100A2B008E8275830012100960060EEE654F70F012
:100A3B00C2D5EBC0E0EAC0E0E9C0E0EE120B8ED00D
:100A4B00E0F9D0E0FAD0E0FB12109DFF60AAEBC0FA
:100A5B00E0EAC0E0E9C0E0120936D0E02401F9D0A9
:100A6B00E03400FAD0E0FBE54F0460DCD54FD980D1
:100A7B00877BFF7A0B798AD202809C79108002796E
:100A8B0008C206C2088008D2D5790A8004790AC246
:100A9B00D5E54F047002F54FE4FAFDFEFF1208FB9B
:100AAB00FC7B082001131208FBFD7B1030000A129F
:100ABB0008FBFE1208FBFF7B20EC3382D592D5504E
:100ACB0013C3E43000069FFFE49EFEE42001039D68
:100ADB00FDE49CFCE4CBF8C201EC700CCFCECDCC8A
:100AEB00E824F8F870F38017C3EF33FFEE33FEED15
:100AFB0033FDEC33FCEB33FB994002FB0FD8E9EBF6
:100B0B00300105F8D0E0C448B201C0E00AEC4D4E0C
:100B1B004F78207B0070C2EAB54F0040BCC0E0129A
:100B2B000B90D0F0D0E0200104C4C0E0C4B201C0EF
:100B3B00F012091FD0F0D5F0EB02096F1210D80A92
:100B4B000C530A865809DD4C09D9420A8A4F0A927E
:0F0B5B00440A924909F2430A98550A7C460A7CDB
:100B6A00450A7C470C385009E12D09E52E0A082B65
:100B7A0009E9230A06200C212A09A14800000A00D3
:100B8A003F3F3F00790AA2D5200314300509B91066
:100B9A00020404B9080104A2D52006025001042067
:100BAA0002689202B54E005034C0E07F203003192B
:100BBA007F30A20272067205500F120BE7C202C200
:100BCA0006C205C2087F30800F300503E9C0E01273
:100BDA000936300503D0E0F9D0E0B54ECC30051720
:100BEA007F30B9100C1209367F583004077F78809D
:100BFA0003B908031209363002057F2D0209367F30
:100C0A00202008F87F2B2006F322920280CF286E3C
:100C1A00756C6C2900D2011208FB3001F8C2017808
:100C2A004E30D50108F60209A12D50434958120841
:100C3A00FB2403B405004001E4900C339312092706
:0D0C4A00743A120927D203754E04020A867F
:10109D00BB010689828A83E0225002E722BBFE0251
:0910AD00E32289828A83E4932284
:1010B600BB010689828A83F0225002F722BBFE0119
:0210C600F32213
:1010C800FAE6FB0808E6F925F0F618E6CA3AF62229
:1010D800D083D082F8E4937012740193700DA3A3A7
:1010E80093F8740193F5828883E4737402936860BB
:0610F800EFA3A3A380DFBB
:10176A00EFB40A07740D121775740A309811A89904
:10177A00B8130CC2983098FDA899C298B811F630DF
:07178A0099FDC299F59922B7
:00000001FF
