:03000000021F9448
:0C1F9400787FE4F6D8FD7581570216E74F
:101F3C000000000000000000000000000000000095
:101C68007F037D0375340BE4F535F536753701755B
:101C78003801753901C007C005783C7C00FDFB7A46
:101C8800007934FE7F06120E93D005D00712142B6C
:101C98007F037D0275340BE4F535F536753701752C
:101CA8003801753901C007C005783C7C00FDFB7A16
:101CB800007934FE7F06120E93D005D00712142B3C
:041CC800D2B2D2B30F
:011CCC0022F5
:081FAA007F187E55DEFEDFFC0E
:011FB200220C
:0F1F4C0090FE82E030E6F990FE82E054BFF02272
:091FB30090FE817401F0021F4C44
:091FBC0090FE817406F0021F4C36
:101ECC007F0190FE817403F0121F4C90FE82E0544F
:041EDC0002C313FF2B
:011EE00022DF
:101F1C0090FE82E04401F090FE817405F0021F4CAB
:101F2C0090FE82E054FEF090FE817405F0021F4C8E
:0E1F790090FE86EFF090FE817402F0021F4C85
:101F0B00E4FF90FE817404F0121F4C90FE87E0FFFB
:011F1B0022A3
:081B87008E348F358D368B374B
:101B8F0078387C007D007BFF7A1F793C7E007F02D6
:101B9F00120E93E534F538E535F53975BA8090FEB8
:101BAF008074E0F0A3E4F090FE82E030E70280EB77
:101BBF00121FB3E53654FEFF121F79121ECCEF60D1
:101BCF000280D8AF37121F79121ECCEF600280CB84
:101BDF00AF38121F79121ECCEF600280BEAF3912E0
:101BEF001F79121ECCEF600280B1121FBCE4F5BA50
:011BFF0022C3
:04193E008F348D3520
:1019420078367C007D007BFF7A1F793E7E007F0A1D
:10195200120E9378407C007D007BFF7A1F79487ECF
:10196200007F04120E93E4FDFCF544F54575BA8040
:1019720090FE8074E0F0A3E4F090FE82E030E70293
:1019820080EB121FB3E53454FEFF121F79121ECCF6
:10199200EF600280D8AF35121F79121ECCEF6002C1
:1019A20080CB121FB3E5344401FF121F79121ECC03
:1019B200EF600280B8121F0B7540008F41121F2C7E
:1019C200121F0B7542008F43121F1C121FBCE4F53D
:0B19D200BAE5414542FCE543AE04FFCE
:0119DD0022E7
:10142B00EF1470030214BF14700302152D14700314
:10143B0002159B147003021609147003021677240D
:10144B000560030216E6E53C5401FFA8050880027F
:10145B00C333D8FCF594E53C5402C313FFA805082D
:10146B008002C333D8FCF593E53DA805088002C381
:10147B0033D8FC90FE10F0E53EA805088002C3337C
:10148B00D8FC90FE18F0E53FA805088002C333D8BE
:10149B00FC90FE20F0E540A805088002C333D8FC81
:1014AB0090FE28F0E541A805088002C333D8FC90D4
:1014BB00FE30F022E53C5401FFA805088002C3333F
:1014CB00D8FCF592E53C5402C313FFA80508800233
:1014DB00C333D8FCF591E53DA805088002C333D88A
:1014EB00FC90FE11F0E53EA805088002C333D8FC42
:1014FB0090FE19F0E53FA805088002C333D8FC9095
:10150B00FE21F0E540A805088002C333D8FC90FE0D
:10151B0029F0E541A805088002C333D8FC90FE31C1
:10152B00F022E53C5401FFA805088002C333D8FC28
:10153B00F596E53C5402C313FFA805088002C3339C
:10154B00D8FCF595E53DA805088002C333D8FC907F
:10155B00FE12F0E53EA805088002C333D8FC90FECE
:10156B001AF0E53FA805088002C333D8FC90FE2291
:10157B00F0E540A805088002C333D8FC90FE2AF0A2
:10158B00E541A805088002C333D8FC90FE32F02257
:10159B00E53C5401FFA805088002C333D8FCF5B223
:1015AB00E53C5402C313FFA805088002C333D8FCE3
:1015BB00F5B1E53DA805088002C333D8FC90FE13B6
:1015CB00F0E53EA805088002C333D8FC90FE1BF063
:1015DB00E53FA805088002C333D8FC90FE23F0E555
:1015EB0040A805088002C333D8FC90FE2BF0E541E0
:1015FB00A805088002C333D8FC90FE33F022E53CEB
:10160B005401FFA805088002C333D8FCF5B4E53CB0
:10161B005402C313FFA805088002C333D8FCF5B3EB
:10162B00E53DA805088002C333D8FC90FE14F0E515
:10163B003EA805088002C333D8FC90FE1CF0E53FA2
:10164B00A805088002C333D8FC90FE24F0E540A81F
:10165B0005088002C333D8FC90FE2CF0E541A805A9
:10166B00088002C333D8FC90FE34F022E53C5401D1
:10167B00FFA805088002C333D8FCF5CAE53C540229
:10168B00C313FFA805088002C333D8FCF5C9E53D99
:10169B00A805088002C333D8FC90FE15F0E53EA8E0
:1016AB0005088002C333D8FC90FE1DF0E53FA8056A
:1016BB00088002C333D8FC90FE25F0E540A805084E
:1016CB008002C333D8FC90FE2DF0AF05E541A8078F
:0C16DB00088002C333D8FC90FE35F022DA
:101E6500252E32665600252E32664100252E326615
:0C1E75005700000000000000000000000A
:1016E70078227C007D007BFF7A1E79777E007F0A57
:1016F700120E93E4F52CF52DF531F530F52FF52E77
:10170700F532F5331219DEE4FF121E9BE4FF121DBA
:10171700D2121C68E4FB7D807F1F7E3C121B877BF7
:10172700057D807F007E10121B877D027F81121945
:101737003E8E2C8F2DE52D7803CEA2E713CE13D83E
:10174700F8FDAC06EC120A067B6F7A127983783BB8
:101757001208FB8F318E308D2F8C2E7537FF753821
:101767001E7539658F3D8E3C8D3B8C3A7B007A0028
:1017770079221210187B007A0079227539107D02C0
:10178700E4FF121D30E4F52CF52DF531F530F52F7A
:10179700F52EFB7D807F1F7E3C121B877D047F819A
:1017A70012193E8E2C8F2DAC2CAD2DEC120A067B18
:1017B700177AB7795178391208FB8F318E308D2F10
:1017C7008C2E121F878F318E308D2F8C2E7537FF01
:1017D70075381E75396B8F3D8E3C8D3B8C3A7B007F
:1017E7007A0079221210187B007A00792275391055
:1017F7007D027F41121D30E4F52CF52DF531F530D2
:10180700F52FF52E7D037F8112193E8E2C8F2DAC7F
:101817002CAD2DEC120A067B6F7A127983783B1276
:1018270008FB8F318E308D2F8C2E7537FF75381E44
:101837007539718F3D8E3C8D3B8C3A7B007A0079F0
:10184700221210187B007A007922753910E4FDFF07
:10185700121D30E4F52CF52DF531F530F52FF52E69
:0A1867007FF47E01121E810217318A
:100003000000000000000000002F000000000700B7
:10001300070000147F147F1400242A7F2A12006231
:1000230064081323003649552250000005030000DD
:1000330000001C224100000041221C000014083E65
:1000430008140008083E0808000000A0600000082B
:10005300080808080000606000000020100804027F
:10006300003E5149453E0000427F4000004261513D
:100073004946002141454B31001814127F100027D7
:1000830045454539003C4A4949300001710905039A
:1000930000364949493600064949291E00003636CB
:1000A300000000005636000000081422410000142E
:1000B300141414140000412214080002015109060B
:1000C30000324959513E007C1211127C007F49498C
:1000D3004936003E41414122007F4141221C007FBD
:1000E30049494941007F09090901003E4149497ACB
:1000F300007F0808087F0000417F41000020404145
:100103003F01007F08142241007F40404040007FB0
:10011300020C027F007F0408107F003E4141413EF4
:10012300007F09090906003E4151215E007F09193C
:1001330029460046494949310001017F0101003F39
:100143004040403F001F2040201F003F4038403FB9
:10015300006314081463000708700807006151491D
:10016300454300007F41410000552A552A550000B0
:1001730041417F000004020102040040404040402E
:10018300000001020400002054545478007F4844C6
:10019300443800384444442000384444487F0038FD
:1001A3005454541800087E0901020018A4A4A47C26
:1001B300007F080404780000447D400000408084F0
:1001C3007D00007F102844000000417F4000007C38
:1001D30004180478007C0804047800384444443844
:1001E30000FC242424180018242418FC007C080490
:1001F300040800485454542000043F444020003C69
:100203004040207C001C2040201C003C4030403CEF
:10021300004428102844001CA0A0A07C004464547F
:100223004C441414141414140000000000000000C3
:100233000000000000000000000000F800000000C3
:10024300000000333000000000100C06100C060004
:10025300000000000000000040C07840C07840006B
:10026300043F04043F040400007088FC08300000CD
:10027300001820FF211E0000F008F000E018000025
:1002830000211C031E211E0000F0088870000000DE
:100293001E2123241927211010160E000000000030
:1002A3000000000000000000000000E0180402004D
:1002B300000000071820400000020418E0000000BE
:1002C3000040201807000000404080F080404000BC
:1002D3000202010F01020200000000F00000000012
:1002E3000101011F010101000000000000000000E6
:1002F30080B070000000000000000000000000005B
:1003030000010101010101010000000000000000E3
:10031300003030000000000000000000806018047E
:10032300006018060100000000E010080810E0005B
:10033300000F102020100F00001010F80000000024
:100343000020203F2020000000700808088870006B
:1003530000302824222130000030088888483000EB
:100363000018202020110E000000C02010F800000B
:1003730000070424243F240000F8088888080800A4
:100383000019212020110E0000E0108888180000B9
:10039300000F112020110E0000380808C83808008B
:1003A3000000003F0000000000708808088870000B
:1003B300001C222121221C0000E010080810E0008C
:1003C3000000312222110F00000000C0C000000015
:1003D300000000303000000000000080000000003A
:1003E3000000806000000000000080402010080032
:1003F30000010204081020004040404040404000FB
:1004030004040404040404000008102040800000D5
:100413000020100804020100007048080808F000DA
:100423000000003036010000C030C828E810E000AA
:100433000718272423140B000000C038E000000035
:10044300203C23020227382008F88888887000009F
:10045300203F202020110E00C03008080808380073
:10046300071820202010080008F808080810E000EA
:10047300203F202020100F0008F88888E80810008B
:10048300203F20202320180008F88888E80810005F
:10049300203F200003000000C03008080838000097
:1004A30007182020221E020008F808000008F80898
:1004B300203F210101213F20000808F8080800001F
:1004C3000020203F2020000000000808F808080052
:1004D300C08080807F00000008F888C028180800CA
:1004E300203F20012638200008F808000000000003
:1004F300203F20202020300008F8F800F8F80800FA
:10050300203F003F003F200008F830C00008F808F3
:10051300203F200007183F00E01008080810E00003
:100523000F10202020100F0008F808080808F0001A
:10053300203F210101010000E01008080810E0003D
:100543000F18242438504F0008F8888888887000D2
:10055300203F2000030C3020007088080808380072
:100563000038202121221C00180808F80808180068
:100573000000203F2000000008F808000008F808E9
:10058300001F202020201F000878880000C838089A
:10059300000007380E010000F80800F80008F80012
:1005A300033C0700073C03000818688080681808AC
:1005B30020302C03032C30200838C800C83808002A
:1005C3000000203F2000000010080808C838080079
:1005D3002038262120201800000000FE020202001D
:1005E3000000007F40404000000C30C000000000CD
:1005F300000000010638C00000020202FE000000F5
:10060300004040407F00000000000402020204009A
:1006130000000000000000000000000000000000D7
:1006230080808080808080800002020400000000BF
:1006330000000000000000000000808080800000B7
:100643000019242222223F2008F8008080000000A5
:10065300003F112020110E00000000808080000068
:10066300000E112020201100000000808088F80077
:10067300000E112020103F200000808080800000A9
:10068300001F222222221300008080F0888888180D
:100693000020203F20200000000080808080800018
:1006A300006B94949493600008F8008080800000AD
:1006B300203F210000203F20008098980000000088
:1006C3000020203F202000000000008098980000B8
:1006D30000C08080807F000008F8000080808000D8
:1006E300203F24022D302000000808F800000000FD
:1006F3000020203F202000008080808080808000B8
:10070300203F20003F20003F808000808080000049
:10071300203F210000203F200000808080800000D7
:10072300001F202020201F00808000808000000008
:1007330080FFA12020110E00000000808080800037
:10074300000E112020A0FF80808080008080800028
:1007530020203F2120000100000080808080800055
:100763000033242424241900008080E080800000CA
:100773000000001F20200000808000000080800017
:10078300001F202020103F20808080000080808078
:1007930000010E3008060100808000800080808008
:1007A3000F300C030C300F0000808000808080002D
:1007B3000020312E0E312000808080000080808058
:1007C30080818E7018060100008080808080800008
:1007D3000021302C2221300000000000807C020226
:1007E30000000000003F404000000000FF00000048
:1007F30000000000FF0000000002027C80000000F7
:100803000040403F00000000000601010202040412
:1008130000000000000000000000F010101010FFA6
:1008230010101010F000000000000F04040404FF77
:10083300040404040F0000004040405F5555557503
:100843005555555F404040000040200F09498979C4
:100853000909090F2040000000FE02424ACA4A4A21
:10086300CA4A4A4202FE000000FF40504C43404047
:100873004F50505C40FF00000000F888888888FFD4
:1008830088888888F800000000001F080808087F8F
:10089300888888889F80F00080828282828282E2B8
:1008A300A2928A8682808000000000000040807F40
:1008B3000000000000000000101010FF10900888D6
:1008C3008888FF88888808000444827F01808040EC
:1008D300432C1028468180000010101010D030FFE8
:1008E30030D0121C1010000010080402010000FF99
:0808F3000000010204081000DE
:101CCD007F057D0575340BE4F535F53675370175F2
:101CDD003801753901C007C005783C7C00FDFB7AE1
:101CED00007934FE0F120E93D005D00712142B7FFE
:101CFD00057D04753401E4F535F536753701753814
:101D0D0001753901C007C005783C7C00FDFB7A00E8
:101D1D007934FE0F120E93D005D00712142BD2CCAE
:021D2D00D2CD15
:011D2F002291
:101E8100EF4E60157D087C07ED1DAA0470011C4A08
:091E910070F6EF1F70EA1E80E7F5
:011E9A002225
:101E9B008F34E5347006FD7FA6121D81E534B40145
:091EAB0007E4FD7FA7121D81224E
:101DD2008F34E534700DFD7FC8121D81E4FD7FA1B3
:101DE200121D81E534B4010EE4FD7FC0121D81E4B1
:071DF200FD7FA0121D8122FC
:081FC5007F01AE071FEE70FA68
:011FCD0022F1
:0F1F5B00D2CDD2CC121FC5C2CD121FC5C2CC220F
:0A1FA000C2CDD2CC121FC5D2CD2253
:0F1F6A00D2CD121FC5D2CC121FC5C2CC021FC5CB
:021E2000AD070C
:101E2200E4FCC2CCED30E704D2CD8002C2CD121F59
:101E3200C5D2CC121FC5C2CCED25E0FD0CBC08E218
:011E4200227D
:081D7900E4FD121D81E4FDFFF1
:101D8100AB05AA07121F5B7F78121E20121F6AEB98
:101D910060047F408002E4FF121E20121F6AAF021E
:091DA100121E20121F6A021FA08D
:101E4300A907ED24B0FFE4FD121D81E954F0C45449
:101E53000F4410FFE4FD121D81E9540FFFE4FD025E
:021E63001D81DF
:101EE100E4FD7F8D121D81E4FD7F14121D81E4FD4F
:051EF1007FAF021D811E
:101EF600E4FD7F8D121D81E4FD7F10121D81E4FD3E
:051F06007FAE021D8109
:101DAA00E4F9E924B0FF121D79E4FD7F10121D81C8
:101DBA00E4F5347D01E4FF121D810534E534C39452
:071DCA008040F009B904DBC1
:011DD10022EF
:041871008F3B8D3CE0
:10187500E4F53FE53EC313FDF540E4F541F542E5EA
:101885003EB408087543007544068029E53E1313E8
:1018950013541FFF7E00E53E54076005900001804C
:1018A50003900000E5822FFFE5833EFE7C00120FCA
:1018B500118E438F44EB24E0F53FAD3CAF3B121E48
:1018C50043E4F541F542C3E5429544E5419543506E
:1018D50067E540FD7C00AE41AF42120F23ED4C7031
:1018E5000FE53E64086009AD3C053CAF3B121E4365
:1018F500E53EB4081075F006E53FA42403F582E53E
:10190500F034008013E53EB4102E75F010E53FA4C9
:10191500242BF582E5F03402F583E5822542F58234
:10192500E5833541F583E493FF7D01121D81054271
:08193500E54270920541808E2D
:01193D002287
:041EB4008F1DA905D0
:101EB8007F017E00AD0119ED6009AD1D7C00120F98
:031EC8001180F195
:011ECB0022F4
:081AFE008F138D148A158B165D
:101B0600E4F51BF51CE518B40803751B02E4F5198A
:101B1600E519C395175069C3E517951914FD7F0A92
:101B2600121EB4AC15AD16CFCDCFCECCCE120F2330
:101B36007C007D0A120F238D1AE51C7025E517140B
:101B4600FFE519C39F501BE51A7014E518C313254A
:101B56001B8519F0A42513FF85183E7B2080187578
:101B66001C01E518C313251B8519F0A42513FFE5F1
:101B76001A2430FB85183EAD141218710519809091
:011B8600223C
:0A1D30008F348D358B368A378938E1
:101D3A00E4F53AAB36AA37A938853A827583001298
:101D4A000ED2602AAF3A053A8F82758300120ED2FC
:101D5A00FB85393EAD35AF34121871E539B4080444
:0E1D6A0074068004E539C3132534F53480C5B2
:011D78002248
:061A73008F508D518B52D3
:101A7900E553131313541FFF7E00E55354077C00ED
:101A890060047D0180027D00ED2FFFEC3EFEAD5329
:101A99007C00120F118E568F57E4F554F555C3E5A6
:101AA900559557E5549556504BE553FD7C00AE547A
:101AB900AF55120F23ED4C7009AD510551AF5012BE
:101AC9001E43E553B4102DE552C43354E0241BF5ED
:101AD90082E43408F583E5822555F582E58335549A
:101AE900F583E493FF7D01121D810555E55570AE1F
:041AF900055480AA66
:011AFD0022C6
:061C00008F088D098B0A1C
:101C0600E4F50FF510E50B131313541FFFE50B5402
:101C16000760047E0180027E00EF2EF50BE4F511CD
:101C2600E511C3950B503AE5112509FDAF08121EC3
:101C360043E4F512E512C3950A5022AB0CAA0DA98E
:101C46000E0510E510AE0F7002050F14F5828E8397
:101C5600120ED2FF7D01121D81051280D70511805B
:011C6600BFBE
:011C6700225A
:1019DE00121CCD7FAE121D797F10121D79E4FD7F92
:1019EE00B0121D81E4FD7F81121D81E4FD7FFF1287
:1019FE001D81E4FD7FA1121D81E4FD7FA6121D81D4
:101A0E00E4FD7FA8121D81E4FD7F1F121D81E4FD00
:101A1E007FC8121D81E4FD7FD3121D7BE4FD7FD5AF
:101A2E00121D81E4FD7F80121D81E4FD7FD9121D00
:101A3E0081E4FD7F1F121D81E4FD7FDA121D7BE420
:101A4E00FD7FDB121D81E4FD7F40121D81E4FD7FD1
:101A5E008D121D81E4FD7F14121D81121DAAE4FD5D
:051A6E007FAF021D81A5
:1008FB00EC4D6011E8497017ED33EC3304600DE4F7
:10090B00FCFFFEFD22E933E8330470F8020A74128F
:10091B000A3F58046009E4CC248150062850090290
:10092B000A7E284003020A7BC0E0EB4A7044B98080
:10093B0006D0E0FB020A6AEF4E701CBD8008EBFF8D
:10094B00EAFEE9FD80EBE98DF0A4FEE5F00209E497
:10095B00E9CDF9EAFEEBFFEF89F0A4FCE5F0CE89D7
:10096B00F0A42EFFE435F0CD89F0A42DFEE435F094
:10097B008067EF4E7005BD80D780C3EF8BF0A4ACC2
:10098B00F0EE8BF0A42CFCE435F0F8EF8AF0A42CFD
:10099B00E5F038FCE433CB8DF0A42CFCE5F03BF810
:1009AB00EE8AF0A42CFCE5F038F8E433CF89F0A400
:1009BB002CFCE5F038CF3400CE89F0A42FFFE5F006
:1009CB003EFEE433C98DF0A42EFEE5F039CD8AF05E
:1009DB00A42FFFE5F03EFEE43DFD33D0E0FB5007D6
:1009EB000BBB000F020A7EEC2CFCEF33FFEE33FE49
:0609FB00ED33FD020A5677
:100A010075F020800E75F010800575F0087D007E70
:100A1100007F003392D530D503120F78EC334010AC
:100A2100EF33FFEE33FEED33FDEC33FCD5F0ED2279
:0E0A3100E5F0247EA2D513CC92E7CDCEFF22B5
:100FBC00E54B2437F8E6054B2278343007027837B6
:100FCC00E475F001120F86020EB92000EB7F2ED2D1
:100FDC00008018EF540F2490D43440D4FF30040B0D
:100FEC00EF24BFB41A0050032461FFE54C600215D6
:100FFC004C054FE54F7002054E30070D7834E47503
:10100C00F001120F86EF020EFF021DF97403D207D6
:10101C008003E4C207F54B8B348A358936E4F54CF2
:10102C00F54EF54FE54C60077F20120FF780F575F4
:10103C004DFFC201C200C202C203C205C206C208F1
:10104C00120FC5FF700D3007057F00121008AF4F4F
:10105C00AE4E22B4255FC2D5C204120FC5FF24D0F8
:10106C00B40A00501A75F00A784C30D50508B6FF52
:10107C000106C6A426F620D5047002D20380D9241A
:10108C00CFB41A00EF5004C2E5D2040212F5D2011B
:10109C0080C6D20080C0D20280BCD2D580BAD20524
:1010AC0080B47F20120FF72002077401B54C00406A
:1010BC00F1120FBCFF120FF7021030D208D20680CB
:1010CC0095120FBCFB120FBCFA120FBCF94A4B70F5
:1010DC000679EC7A137BFF20022EE54C602A7E0009
:1010EC008E82758300120ED260060EEE654D70F086
:1010FC00C2D5EBC0E0EAC0E0E9C0E0EE121355D077
:10110C00E0F9D0E0FAD0E0FB120EB9FF60AAEBC018
:10111C00E0EAC0E0E9C0E0120FF7D0E02401F9D01A
:10112C00E03400FAD0E0FBE54D0460DCD54DD9800D
:10113C0087D20280A212133860F7E54D70010412B9
:10114C000A89A94D600DE54D600914F54D1213DFA8
:10115C00EF60F3EA30E702F404C3995077EAF42520
:10116C004D0430E701E404F54D800D12133860C1D5
:10117C00EA054D254D120A89EA784AF630E701E472
:10118C00254D04D54D0420050114121355E4C0E07F
:10119C001213DF784AE6601320E70714F6120FDF0C
:1011AC00802204F6D0E014C0E07F00120FDFE54D82
:1011BC006007120FD6154D800B300503120FD6D0D9
:1011CC00E0021030D0E00480C512133860A0E54D69
:1011DC0004120A89784AEAF6E54D200502600104FA
:0511EC0024041213555C
:1011F10074FF04C0E01213DF120FDFE54D2005027A
:101201006003120FD6D0E0B54DE87F45120FE978A3
:101211004AE67F2B30E7047F2DF404C0E0120FF77C
:10122100D0E075F00A84C0F0120FE0D0E0120FE0B8
:10123100021030791080027908C206C2088008D2F3
:10124100D5790A8004790AC2D5E54D047002F54DBD
:10125100E4FAFDFEFF120FBCFC7B08200113120F04
:10126100BCFD7B1030000A120FBCFE120FBCFF7BCD
:1012710020EC3382D592D55013C3E43000069FFF92
:10128100E49EFEE42001039DFDE49CFCE4CBF8C256
:1012910001EC700CCFCECDCCE824F8F870F38017B8
:1012A100C3EF33FFEE33FEED33FDEC33FCEB33FBE9
:1012B100994002FB0FD8E9EB300105F8D0E0C448B2
:1012C100B201C0E00AEC4D4E4F78207B0070C2EABB
:1012D100B54D0040BCC0E0121357D0F0D0E0200162
:1012E10004C4C0E0C4B201C0F0120FE0D0F0D5F0E8
:1012F100EB021030120F9610CD53123458109E4C41
:10130100109A4212384F12404412404910B343120E
:10131100465511774611D545114147140C5010A27D
:101321002D10A62E10C92B10AA2310C72013F52AA1
:10133100106248000010C1E54DB4FF03754D06125F
:101341000FBCFC120FBCFD120FBCFE120FBCFF78CC
:1013510043020AB8790AA2D5200314300509B9104D
:10136100020404B9080104A2D52006025001042098
:1013710002689202B54C005034C0E07F203003195E
:101381007F30A20272067205500F1213AEC202C262
:1013910006C205C2087F30800F300503E9C0E012A4
:1013A1000FF7300503D0E0F9D0E0B54CCC3005178C
:1013B1007F30B9100C120FF77F583004077F788007
:1013C10003B90803120FF73002057F2D020FF77FD3
:1013D100202008F87F2B2006F322920280CF7F0085
:1013E100B4070050052443F8E6FF22286E756C6CA3
:1013F1002900D201120FBC3001F8C201784C30D55E
:101401000108F60210622D50434958120FBC240303
:10141100B405004001E490140793120FE8743A12E6
:0A1421000FE8D203754C04021234E8
:0D1F8700ED33EC3360065004EC6480FC2266
:100A3F00E9D2E7C933E833F892D5EDD2E7CD33ECFD
:070A4F0033FC5002B2D52276
:100A5600EC30E7100FBF000C0EBE00080DBD000401
:100A66000BEB6014A2D5EB13FCED92E7FD2274FFAD
:100A7600FCFDFEFF22E480F8A2D574FF13FC7D8006
:030A8600E480EF1A
:100A8900F920E72824F950037907E4F42402FB1834
:100A9900DBFDE624FB5014E9600DE4F618E604F6E4
:0F0AA900B40A08E4F6D9F57401F60A22C2D52280
:100AB800ED33EC3392D5FA602AB4FF33EDC2E77B0D
:100AC800FF60067A0A79DDE4227A0A79E620D504FD
:100AD8007A0A79E1224E614E002B494E46002D4993
:100AE8004E4600E47A08F608DAFC7B00740722E830
:100AF800C0E0ECC0E0EDC0E0EEC0E0EFC0E0EA75B9
:100B0800F010A4CAABF075F04DA42BFBE435F0FC53
:100B1800EA2410FAEB34C5FBEC34D9FCEDC2E7FF4C
:100B280075F056A4F42411C5F0F434C58FF0A42A46
:100B3800E5F03BE43CF620E714120D83D0E0FFD04B
:100B4800E0FED0E0FDD0E0FC120CB68014F40412F4
:100B58000D83D0E0FFD0E0FED0E0FDD0E0FC12082D
:100B6800FBD0E0F8E6FAEDD2E7CD33EC332482FB94
:100B7800E4C3CF33CFCE33CECD33CD33DBF37B07D6
:100B880075F00A846004F6081B0AE5F0F6088FF091
:100B9800740AA4FFACF08EF0740AA42CFEACF050DA
:100BA800010C8DF0740AA42CFDE435F0F608DBDEA8
:030BB8007407229D
:100BBB00020A74E86480F8E933E83360110460F0EA
:100BCB00ED33EC337009E8FCE9FDEAFEEBFF2204A0
:100BDB0060DED3EB9FEA9EE99DE8C2E78CF0C2F79B
:100BEB0095F0400CE8CCF8E9CDF9EACEFAEBCFFB67
:100BFB00120A3F85D0F05804700320D5B3E8047077
:100C0B00075002B2D5020A7E92D5EC0460F7E4CC11
:100C1B00C0E0C398F8603B94186008400DD0E0FB2F
:100C2B00020A56E4FBFAC9FC8028E830E406E4C962
:100C3B00FBE4CAFCE830E305E4C9CACBFCE8540783
:100C4B006010F8C3E913F9EA13FAEB13FBEC13FC8E
:100C5B00D8F130F52FC3E49CFCEF9BFFEE9AFEED31
:100C6B0099FDD0E0FBEF4E4D4C701222DB03020AD4
:100C7B007BEC2CFCEF33FFEE33FEED33FDED30E779
:100C8B00EB020A56EF2BFFEE3AFEED39FDD0E0FBFF
:100C9B0050130BBB0003020A7EED13FDEE13FEEFA8
:080CAB0013FFEC13FC020A56D2
:100CB300020A7EEC5D046005E859047003020A74BD
:100CC300120A3F580460F6EC4860F2EC7004FDFE33
:100CD300FF22C860DB2481C85009C3986002500614
:100CE300020A7B9850CAF582E9294B4A7005AB8208
:100CF300020A6A75F0007C1A7880C3EF9BEE9AEDC6
:100D030099400DC3EF9BFFEE9AFEED99FDE842F08B
:100D1300DC23ACF0D0E0FFD0E0FED0E0FDAB8220DE
:100D2300E7101BEB60BAEC2CFCEF33FFEE33FEED68
:100D330033FD020A56E803F830E705C0F075F0000A
:100D4300EF2FFFEE33FEED33FD40B830E7C280AA4C
:100D53003F8000004120000042C80000447A0000A8
:100D6300461C400047C35000497424004B1896802A
:100D73004CBEBC205A0E1BCA6753C21C749DC5AE21
:100D8300FB60065407601C2323120DB1EB5438603B
:100D930009120D9D120DAC1208FBECF8EDF9EEFAF9
:100DA300EFCB22EB120DAC80F1543803241C900DD1
:100DB30053FE93FC0EEE93FD0EEE930ECE93FF22A5
:100DC300E709F608DFFA8046E709F208DFFA803E12
:100DD30088828C83E709F0A3DFFA8032E309F608FF
:100DE300DFFA8078E309F208DFFA807088828C8367
:100DF300E309F0A3DFFA806489828A83E0A3F6081B
:100E0300DFFA805889828A83E0A3F208DFFA804CF4
:100E130080D280FA80C680D4806980F280338010CB
:100E230080A680EA809A80A880DA80E280CA803334
:100E330089828A83ECFAE493A3C8C582C8CCC583AC
:100E4300CCF0A3C8C582C8CCC583CCDFE9DEE7807C
:100E53000D89828A83E493A3F608DFF9ECFAA9F0FB
:100E6300EDFB2289828A83ECFAE0A3C8C582C8CC51
:100E7300C583CCF0A3C8C582C8CCC583CCDFEADE6A
:100E8300E880DB89828A83E493A3F208DFF980CCCC
:100E930088F0EF60010E4E60C388F0ED2402B404C5
:100EA3000050B9F582EB2402B4040050AF2323456C
:060EB3008223900E137370
:100EB900BB010689828A83E0225002E722BBFE0237
:090EC900E32289828A83E493226A
:100ED200BB010CE58229F582E5833AF583E02250D5
:100EE20006E92582F8E622BBFE06E92582F8E2221F
:0D0EF200E58229F582E5833AF583E4932239
:100EFF00BB010689828A83F0225002F722BBFE01D2
:020F0F00F322CB
:100F1100EF8DF0A4A8F0CF8CF0A428CE8DF0A42EF4
:020F2100FE22AE
:100F2300BC000BBE0029EF8DF084FFADF022E4CCB2
:100F3300F875F008EF2FFFEE33FEEC33FCEE9DEC7B
:100F4300984005FCEE9DFE0FD5F0E9E4CEFD22EDC1
:100F5300F8F5F0EE8420D21CFEADF075F008EF2F0B
:100F6300FFED33FD4007985006D5F0F222C398FDFC
:050F73000FD5F0EA2299
:0E0F7800C3E49FFFE49EFEE49DFDE49CFC228A
:100F8600FAE6FB0808E6F925F0F618E6CA3AF6226C
:100F9600D083D082F8E4937012740193700DA3A3EA
:100FA60093F8740193F5828883E4737402936860FE
:060FB600EFA3A3A380DFFE
:101DF900EFB40A07740D121E04740A309811A899D9
:101E0900B8130CC2983098FDA899C298B811F63049
:071E190099FDC299F5992221
:00000001FF
